{
	"contracts/VariavelEstado.sol": {
		"Ve": {
			"abi": [
				{
					"inputs": [],
					"name": "aN",
					"outputs": [],
					"stateMutability": "nonpayable",
					"type": "function"
				},
				{
					"inputs": [],
					"name": "pN",
					"outputs": [
						{
							"internalType": "int256",
							"name": "",
							"type": "int256"
						}
					],
					"stateMutability": "view",
					"type": "function"
				}
			],
			"devdoc": {
				"kind": "dev",
				"methods": {},
				"version": 1
			},
			"evm": {
				"assembly": "    /* \"contracts/VariavelEstado.sol\":60:238  contract Ve {\r... */\n  mstore(0x40, 0x80)\n  callvalue\n  dup1\n  iszero\n  tag_1\n  jumpi\n  0x00\n  dup1\n  revert\ntag_1:\n  pop\n  dataSize(sub_0)\n  dup1\n  dataOffset(sub_0)\n  0x00\n  codecopy\n  0x00\n  return\nstop\n\nsub_0: assembly {\n        /* \"contracts/VariavelEstado.sol\":60:238  contract Ve {\r... */\n      mstore(0x40, 0x80)\n      callvalue\n      dup1\n      iszero\n      tag_1\n      jumpi\n      0x00\n      dup1\n      revert\n    tag_1:\n      pop\n      jumpi(tag_2, lt(calldatasize, 0x04))\n      shr(0xe0, calldataload(0x00))\n      dup1\n      0x3e0bd45c\n      eq\n      tag_3\n      jumpi\n      dup1\n      0x6b798695\n      eq\n      tag_4\n      jumpi\n    tag_2:\n      0x00\n      dup1\n      revert\n        /* \"contracts/VariavelEstado.sol\":182:235  function aN() public {\r... */\n    tag_3:\n      tag_5\n      tag_6\n      jump\t// in\n    tag_5:\n      stop\n        /* \"contracts/VariavelEstado.sol\":100:174  function pN() public view returns (int) {\r... */\n    tag_4:\n      tag_7\n      tag_8\n      jump\t// in\n    tag_7:\n      mload(0x40)\n      tag_9\n      swap2\n      swap1\n      tag_10\n      jump\t// in\n    tag_9:\n      mload(0x40)\n      dup1\n      swap2\n      sub\n      swap1\n      return\n        /* \"contracts/VariavelEstado.sol\":182:235  function aN() public {\r... */\n    tag_6:\n        /* \"contracts/VariavelEstado.sol\":225:227  10 */\n      0x0a\n        /* \"contracts/VariavelEstado.sol\":216:222  numero */\n      0x00\n        /* \"contracts/VariavelEstado.sol\":216:227  numero = 10 */\n      dup2\n      swap1\n      sstore\n      pop\n        /* \"contracts/VariavelEstado.sol\":182:235  function aN() public {\r... */\n      jump\t// out\n        /* \"contracts/VariavelEstado.sol\":100:174  function pN() public view returns (int) {\r... */\n    tag_8:\n        /* \"contracts/VariavelEstado.sol\":135:138  int */\n      0x00\n        /* \"contracts/VariavelEstado.sol\":160:166  numero */\n      dup1\n      sload\n        /* \"contracts/VariavelEstado.sol\":153:166  return numero */\n      swap1\n      pop\n        /* \"contracts/VariavelEstado.sol\":100:174  function pN() public view returns (int) {\r... */\n      swap1\n      jump\t// out\n        /* \"#utility.yul\":7:122   */\n    tag_14:\n        /* \"#utility.yul\":92:115   */\n      tag_16\n        /* \"#utility.yul\":109:114   */\n      dup2\n        /* \"#utility.yul\":92:115   */\n      tag_17\n      jump\t// in\n    tag_16:\n        /* \"#utility.yul\":87:90   */\n      dup3\n        /* \"#utility.yul\":80:116   */\n      mstore\n        /* \"#utility.yul\":7:122   */\n      pop\n      pop\n      jump\t// out\n        /* \"#utility.yul\":128:346   */\n    tag_10:\n        /* \"#utility.yul\":219:223   */\n      0x00\n        /* \"#utility.yul\":257:259   */\n      0x20\n        /* \"#utility.yul\":246:255   */\n      dup3\n        /* \"#utility.yul\":242:260   */\n      add\n        /* \"#utility.yul\":234:260   */\n      swap1\n      pop\n        /* \"#utility.yul\":270:339   */\n      tag_19\n        /* \"#utility.yul\":336:337   */\n      0x00\n        /* \"#utility.yul\":325:334   */\n      dup4\n        /* \"#utility.yul\":321:338   */\n      add\n        /* \"#utility.yul\":312:318   */\n      dup5\n        /* \"#utility.yul\":270:339   */\n      tag_14\n      jump\t// in\n    tag_19:\n        /* \"#utility.yul\":128:346   */\n      swap3\n      swap2\n      pop\n      pop\n      jump\t// out\n        /* \"#utility.yul\":352:428   */\n    tag_17:\n        /* \"#utility.yul\":388:395   */\n      0x00\n        /* \"#utility.yul\":417:422   */\n      dup2\n        /* \"#utility.yul\":406:422   */\n      swap1\n      pop\n        /* \"#utility.yul\":352:428   */\n      swap2\n      swap1\n      pop\n      jump\t// out\n\n    auxdata: 0xa26469706673582212200fee9bf66e4a0a1fd35c6567c4355f3232250fdf4df89639cef804aacbd57ef264736f6c63430008070033\n}\n",
				"bytecode": {
					"linkReferences": {},
					"object": "608060405234801561001057600080fd5b5060d28061001f6000396000f3fe6080604052348015600f57600080fd5b506004361060325760003560e01c80633e0bd45c1460375780636b79869514603f575b600080fd5b603d6059565b005b60456063565b604051605091906079565b60405180910390f35b600a600081905550565b60008054905090565b6073816092565b82525050565b6000602082019050608c6000830184606c565b92915050565b600081905091905056fea26469706673582212200fee9bf66e4a0a1fd35c6567c4355f3232250fdf4df89639cef804aacbd57ef264736f6c63430008070033",
					"opcodes": "PUSH1 0x80 PUSH1 0x40 MSTORE CALLVALUE DUP1 ISZERO PUSH2 0x10 JUMPI PUSH1 0x0 DUP1 REVERT JUMPDEST POP PUSH1 0xD2 DUP1 PUSH2 0x1F PUSH1 0x0 CODECOPY PUSH1 0x0 RETURN INVALID PUSH1 0x80 PUSH1 0x40 MSTORE CALLVALUE DUP1 ISZERO PUSH1 0xF JUMPI PUSH1 0x0 DUP1 REVERT JUMPDEST POP PUSH1 0x4 CALLDATASIZE LT PUSH1 0x32 JUMPI PUSH1 0x0 CALLDATALOAD PUSH1 0xE0 SHR DUP1 PUSH4 0x3E0BD45C EQ PUSH1 0x37 JUMPI DUP1 PUSH4 0x6B798695 EQ PUSH1 0x3F JUMPI JUMPDEST PUSH1 0x0 DUP1 REVERT JUMPDEST PUSH1 0x3D PUSH1 0x59 JUMP JUMPDEST STOP JUMPDEST PUSH1 0x45 PUSH1 0x63 JUMP JUMPDEST PUSH1 0x40 MLOAD PUSH1 0x50 SWAP2 SWAP1 PUSH1 0x79 JUMP JUMPDEST PUSH1 0x40 MLOAD DUP1 SWAP2 SUB SWAP1 RETURN JUMPDEST PUSH1 0xA PUSH1 0x0 DUP2 SWAP1 SSTORE POP JUMP JUMPDEST PUSH1 0x0 DUP1 SLOAD SWAP1 POP SWAP1 JUMP JUMPDEST PUSH1 0x73 DUP2 PUSH1 0x92 JUMP JUMPDEST DUP3 MSTORE POP POP JUMP JUMPDEST PUSH1 0x0 PUSH1 0x20 DUP3 ADD SWAP1 POP PUSH1 0x8C PUSH1 0x0 DUP4 ADD DUP5 PUSH1 0x6C JUMP JUMPDEST SWAP3 SWAP2 POP POP JUMP JUMPDEST PUSH1 0x0 DUP2 SWAP1 POP SWAP2 SWAP1 POP JUMP INVALID LOG2 PUSH5 0x6970667358 0x22 SLT KECCAK256 0xF 0xEE SWAP12 0xF6 PUSH15 0x4A0A1FD35C6567C4355F3232250FDF 0x4D 0xF8 SWAP7 CODECOPY 0xCE 0xF8 DIV 0xAA 0xCB 0xD5 PUSH31 0xF264736F6C6343000807003300000000000000000000000000000000000000 "
				},
				"gasEstimates": {
					"creation": {
						"codeDepositCost": "42000",
						"executionCost": "93",
						"totalCost": "42093"
					},
					"external": {
						"aN()": "22236",
						"pN()": "2437"
					}
				},
				"methodIdentifiers": {
					"aN()": "3e0bd45c",
					"pN()": "6b798695"
				}
			},
			"storageLayout": {
				"storage": [
					{
						"astId": 3,
						"contract": "contracts/VariavelEstado.sol:Ve",
						"label": "numero",
						"offset": 0,
						"slot": "0",
						"type": "t_int256"
					}
				],
				"types": {
					"t_int256": {
						"encoding": "inplace",
						"label": "int256",
						"numberOfBytes": "32"
					}
				}
			},
			"userdoc": {
				"kind": "user",
				"methods": {},
				"version": 1
			}
		}
	}
}