{
	"contracts/Webbb3.sol": {
		"Webbb3": {
			"abi": [
				{
					"inputs": [],
					"stateMutability": "nonpayable",
					"type": "constructor"
				},
				{
					"inputs": [
						{
							"internalType": "uint256",
							"name": "choice",
							"type": "uint256"
						}
					],
					"name": "addVote",
					"outputs": [],
					"stateMutability": "nonpayable",
					"type": "function"
				},
				{
					"inputs": [
						{
							"internalType": "string",
							"name": "option1",
							"type": "string"
						},
						{
							"internalType": "string",
							"name": "option2",
							"type": "string"
						},
						{
							"internalType": "uint256",
							"name": "timeToVote",
							"type": "uint256"
						}
					],
					"name": "addVoting",
					"outputs": [],
					"stateMutability": "nonpayable",
					"type": "function"
				},
				{
					"inputs": [],
					"name": "currentVoting",
					"outputs": [
						{
							"internalType": "uint256",
							"name": "",
							"type": "uint256"
						}
					],
					"stateMutability": "view",
					"type": "function"
				},
				{
					"inputs": [],
					"name": "getCurrentVoting",
					"outputs": [
						{
							"components": [
								{
									"internalType": "string",
									"name": "option1",
									"type": "string"
								},
								{
									"internalType": "uint256",
									"name": "votes1",
									"type": "uint256"
								},
								{
									"internalType": "string",
									"name": "option2",
									"type": "string"
								},
								{
									"internalType": "uint256",
									"name": "votes2",
									"type": "uint256"
								},
								{
									"internalType": "uint256",
									"name": "maxDate",
									"type": "uint256"
								}
							],
							"internalType": "struct Voting",
							"name": "",
							"type": "tuple"
						}
					],
					"stateMutability": "view",
					"type": "function"
				},
				{
					"inputs": [
						{
							"internalType": "uint256",
							"name": "",
							"type": "uint256"
						},
						{
							"internalType": "address",
							"name": "",
							"type": "address"
						}
					],
					"name": "votes",
					"outputs": [
						{
							"internalType": "uint256",
							"name": "choice",
							"type": "uint256"
						},
						{
							"internalType": "uint256",
							"name": "date",
							"type": "uint256"
						}
					],
					"stateMutability": "view",
					"type": "function"
				},
				{
					"inputs": [
						{
							"internalType": "uint256",
							"name": "",
							"type": "uint256"
						}
					],
					"name": "votings",
					"outputs": [
						{
							"internalType": "string",
							"name": "option1",
							"type": "string"
						},
						{
							"internalType": "uint256",
							"name": "votes1",
							"type": "uint256"
						},
						{
							"internalType": "string",
							"name": "option2",
							"type": "string"
						},
						{
							"internalType": "uint256",
							"name": "votes2",
							"type": "uint256"
						},
						{
							"internalType": "uint256",
							"name": "maxDate",
							"type": "uint256"
						}
					],
					"stateMutability": "view",
					"type": "function"
				}
			],
			"devdoc": {
				"kind": "dev",
				"methods": {},
				"version": 1
			},
			"evm": {
				"assembly": "    /* \"contracts/Webbb3.sol\":244:1588  contract Webbb3 {\r... */\n  mstore(0x40, 0x80)\n    /* \"contracts/Webbb3.sol\":315:316  0 */\n  0x00\n    /* \"contracts/Webbb3.sol\":287:316  uint public currentVoting = 0 */\n  0x01\n  sstore\n    /* \"contracts/Webbb3.sol\":416:466  constructor(){\r... */\n  callvalue\n  dup1\n  iszero\n  tag_1\n  jumpi\n  0x00\n  dup1\n  revert\ntag_1:\n  pop\n    /* \"contracts/Webbb3.sol\":448:458  msg.sender */\n  caller\n    /* \"contracts/Webbb3.sol\":440:445  owner */\n  0x00\n  dup1\n    /* \"contracts/Webbb3.sol\":440:458  owner = msg.sender */\n  0x0100\n  exp\n  dup2\n  sload\n  dup2\n  0xffffffffffffffffffffffffffffffffffffffff\n  mul\n  not\n  and\n  swap1\n  dup4\n  0xffffffffffffffffffffffffffffffffffffffff\n  and\n  mul\n  or\n  swap1\n  sstore\n  pop\n    /* \"contracts/Webbb3.sol\":244:1588  contract Webbb3 {\r... */\n  dataSize(sub_0)\n  dup1\n  dataOffset(sub_0)\n  0x00\n  codecopy\n  0x00\n  return\nstop\n\nsub_0: assembly {\n        /* \"contracts/Webbb3.sol\":244:1588  contract Webbb3 {\r... */\n      mstore(0x40, 0x80)\n      callvalue\n      dup1\n      iszero\n      tag_1\n      jumpi\n      0x00\n      dup1\n      revert\n    tag_1:\n      pop\n      jumpi(tag_2, lt(calldatasize, 0x04))\n      shr(0xe0, calldataload(0x00))\n      dup1\n      0x0383badc\n      eq\n      tag_3\n      jumpi\n      dup1\n      0x1c7bec9d\n      eq\n      tag_4\n      jumpi\n      dup1\n      0x55f9b1ec\n      eq\n      tag_5\n      jumpi\n      dup1\n      0xa598d03c\n      eq\n      tag_6\n      jumpi\n      dup1\n      0xd23254b4\n      eq\n      tag_7\n      jumpi\n      dup1\n      0xf1156cdf\n      eq\n      tag_8\n      jumpi\n    tag_2:\n      0x00\n      dup1\n      revert\n        /* \"contracts/Webbb3.sol\":1060:1583  function addVote(uint choice) public {\r... */\n    tag_3:\n      tag_9\n      0x04\n      dup1\n      calldatasize\n      sub\n      dup2\n      add\n      swap1\n      tag_10\n      swap2\n      swap1\n      tag_11\n      jump\t// in\n    tag_10:\n      tag_12\n      jump\t// in\n    tag_9:\n      stop\n        /* \"contracts/Webbb3.sol\":287:316  uint public currentVoting = 0 */\n    tag_4:\n      tag_13\n      tag_14\n      jump\t// in\n    tag_13:\n      mload(0x40)\n      tag_15\n      swap2\n      swap1\n      tag_16\n      jump\t// in\n    tag_15:\n      mload(0x40)\n      dup1\n      swap2\n      sub\n      swap1\n      return\n        /* \"contracts/Webbb3.sol\":595:1052  function addVoting(\r... */\n    tag_5:\n      tag_17\n      0x04\n      dup1\n      calldatasize\n      sub\n      dup2\n      add\n      swap1\n      tag_18\n      swap2\n      swap1\n      tag_19\n      jump\t// in\n    tag_18:\n      tag_20\n      jump\t// in\n    tag_17:\n      stop\n        /* \"contracts/Webbb3.sol\":323:346  Voting[] public votings */\n    tag_6:\n      tag_21\n      0x04\n      dup1\n      calldatasize\n      sub\n      dup2\n      add\n      swap1\n      tag_22\n      swap2\n      swap1\n      tag_11\n      jump\t// in\n    tag_22:\n      tag_23\n      jump\t// in\n    tag_21:\n      mload(0x40)\n      tag_24\n      swap6\n      swap5\n      swap4\n      swap3\n      swap2\n      swap1\n      tag_25\n      jump\t// in\n    tag_24:\n      mload(0x40)\n      dup1\n      swap2\n      sub\n      swap1\n      return\n        /* \"contracts/Webbb3.sol\":353:407  mapping (uint => mapping(address => Vote))public votes */\n    tag_7:\n      tag_26\n      0x04\n      dup1\n      calldatasize\n      sub\n      dup2\n      add\n      swap1\n      tag_27\n      swap2\n      swap1\n      tag_28\n      jump\t// in\n    tag_27:\n      tag_29\n      jump\t// in\n    tag_26:\n      mload(0x40)\n      tag_30\n      swap3\n      swap2\n      swap1\n      tag_31\n      jump\t// in\n    tag_30:\n      mload(0x40)\n      dup1\n      swap2\n      sub\n      swap1\n      return\n        /* \"contracts/Webbb3.sol\":474:587  function getCurrentVoting() public view returns (Voting memory) {\r... */\n    tag_8:\n      tag_32\n      tag_33\n      jump\t// in\n    tag_32:\n      mload(0x40)\n      tag_34\n      swap2\n      swap1\n      tag_35\n      jump\t// in\n    tag_34:\n      mload(0x40)\n      dup1\n      swap2\n      sub\n      swap1\n      return\n        /* \"contracts/Webbb3.sol\":1060:1583  function addVote(uint choice) public {\r... */\n    tag_12:\n        /* \"contracts/Webbb3.sol\":1125:1126  1 */\n      0x01\n        /* \"contracts/Webbb3.sol\":1116:1122  choice */\n      dup2\n        /* \"contracts/Webbb3.sol\":1116:1126  choice ==1 */\n      eq\n        /* \"contracts/Webbb3.sol\":1116:1140  choice ==1 || choice ==2 */\n      dup1\n      tag_37\n      jumpi\n      pop\n        /* \"contracts/Webbb3.sol\":1139:1140  2 */\n      0x02\n        /* \"contracts/Webbb3.sol\":1130:1136  choice */\n      dup2\n        /* \"contracts/Webbb3.sol\":1130:1140  choice ==2 */\n      eq\n        /* \"contracts/Webbb3.sol\":1116:1140  choice ==1 || choice ==2 */\n    tag_37:\n        /* \"contracts/Webbb3.sol\":1108:1159  require(choice ==1 || choice ==2, \"Invalid choice\") */\n      tag_38\n      jumpi\n      mload(0x40)\n      0x08c379a000000000000000000000000000000000000000000000000000000000\n      dup2\n      mstore\n      0x04\n      add\n      tag_39\n      swap1\n      tag_40\n      jump\t// in\n    tag_39:\n      mload(0x40)\n      dup1\n      swap2\n      sub\n      swap1\n      revert\n    tag_38:\n        /* \"contracts/Webbb3.sol\":1207:1222  block.timestamp */\n      timestamp\n        /* \"contracts/Webbb3.sol\":1178:1196  getCurrentVoting() */\n      tag_41\n        /* \"contracts/Webbb3.sol\":1178:1194  getCurrentVoting */\n      tag_33\n        /* \"contracts/Webbb3.sol\":1178:1196  getCurrentVoting() */\n      jump\t// in\n    tag_41:\n        /* \"contracts/Webbb3.sol\":1178:1204  getCurrentVoting().maxDate */\n      0x80\n      add\n      mload\n        /* \"contracts/Webbb3.sol\":1178:1222  getCurrentVoting().maxDate > block.timestamp */\n      gt\n        /* \"contracts/Webbb3.sol\":1170:1241  require(getCurrentVoting().maxDate > block.timestamp, \"No open voting\") */\n      tag_42\n      jumpi\n      mload(0x40)\n      0x08c379a000000000000000000000000000000000000000000000000000000000\n      dup2\n      mstore\n      0x04\n      add\n      tag_43\n      swap1\n      tag_44\n      jump\t// in\n    tag_43:\n      mload(0x40)\n      dup1\n      swap2\n      sub\n      swap1\n      revert\n    tag_42:\n        /* \"contracts/Webbb3.sol\":1302:1303  0 */\n      0x00\n        /* \"contracts/Webbb3.sol\":1260:1265  votes */\n      0x03\n        /* \"contracts/Webbb3.sol\":1260:1280  votes[currentVoting] */\n      0x00\n        /* \"contracts/Webbb3.sol\":1266:1279  currentVoting */\n      sload(0x01)\n        /* \"contracts/Webbb3.sol\":1260:1280  votes[currentVoting] */\n      dup2\n      mstore\n      0x20\n      add\n      swap1\n      dup2\n      mstore\n      0x20\n      add\n      0x00\n      keccak256\n        /* \"contracts/Webbb3.sol\":1260:1293  votes[currentVoting] [msg.sender] */\n      0x00\n        /* \"contracts/Webbb3.sol\":1282:1292  msg.sender */\n      caller\n        /* \"contracts/Webbb3.sol\":1260:1293  votes[currentVoting] [msg.sender] */\n      0xffffffffffffffffffffffffffffffffffffffff\n      and\n      0xffffffffffffffffffffffffffffffffffffffff\n      and\n      dup2\n      mstore\n      0x20\n      add\n      swap1\n      dup2\n      mstore\n      0x20\n      add\n      0x00\n      keccak256\n        /* \"contracts/Webbb3.sol\":1260:1298  votes[currentVoting] [msg.sender].date */\n      0x01\n      add\n      sload\n        /* \"contracts/Webbb3.sol\":1260:1303  votes[currentVoting] [msg.sender].date == 0 */\n      eq\n        /* \"contracts/Webbb3.sol\":1252:1340  require(votes[currentVoting] [msg.sender].date == 0, \"You already voted on this voting\") */\n      tag_45\n      jumpi\n      mload(0x40)\n      0x08c379a000000000000000000000000000000000000000000000000000000000\n      dup2\n      mstore\n      0x04\n      add\n      tag_46\n      swap1\n      tag_47\n      jump\t// in\n    tag_46:\n      mload(0x40)\n      dup1\n      swap2\n      sub\n      swap1\n      revert\n    tag_45:\n        /* \"contracts/Webbb3.sol\":1395:1401  choice */\n      dup1\n        /* \"contracts/Webbb3.sol\":1353:1358  votes */\n      0x03\n        /* \"contracts/Webbb3.sol\":1353:1373  votes[currentVoting] */\n      0x00\n        /* \"contracts/Webbb3.sol\":1359:1372  currentVoting */\n      sload(0x01)\n        /* \"contracts/Webbb3.sol\":1353:1373  votes[currentVoting] */\n      dup2\n      mstore\n      0x20\n      add\n      swap1\n      dup2\n      mstore\n      0x20\n      add\n      0x00\n      keccak256\n        /* \"contracts/Webbb3.sol\":1353:1385  votes[currentVoting][msg.sender] */\n      0x00\n        /* \"contracts/Webbb3.sol\":1374:1384  msg.sender */\n      caller\n        /* \"contracts/Webbb3.sol\":1353:1385  votes[currentVoting][msg.sender] */\n      0xffffffffffffffffffffffffffffffffffffffff\n      and\n      0xffffffffffffffffffffffffffffffffffffffff\n      and\n      dup2\n      mstore\n      0x20\n      add\n      swap1\n      dup2\n      mstore\n      0x20\n      add\n      0x00\n      keccak256\n        /* \"contracts/Webbb3.sol\":1353:1392  votes[currentVoting][msg.sender].choice */\n      0x00\n      add\n        /* \"contracts/Webbb3.sol\":1353:1401  votes[currentVoting][msg.sender].choice = choice */\n      dup2\n      swap1\n      sstore\n      pop\n        /* \"contracts/Webbb3.sol\":1452:1467  block.timestamp */\n      timestamp\n        /* \"contracts/Webbb3.sol\":1412:1417  votes */\n      0x03\n        /* \"contracts/Webbb3.sol\":1412:1432  votes[currentVoting] */\n      0x00\n        /* \"contracts/Webbb3.sol\":1418:1431  currentVoting */\n      sload(0x01)\n        /* \"contracts/Webbb3.sol\":1412:1432  votes[currentVoting] */\n      dup2\n      mstore\n      0x20\n      add\n      swap1\n      dup2\n      mstore\n      0x20\n      add\n      0x00\n      keccak256\n        /* \"contracts/Webbb3.sol\":1412:1444  votes[currentVoting][msg.sender] */\n      0x00\n        /* \"contracts/Webbb3.sol\":1433:1443  msg.sender */\n      caller\n        /* \"contracts/Webbb3.sol\":1412:1444  votes[currentVoting][msg.sender] */\n      0xffffffffffffffffffffffffffffffffffffffff\n      and\n      0xffffffffffffffffffffffffffffffffffffffff\n      and\n      dup2\n      mstore\n      0x20\n      add\n      swap1\n      dup2\n      mstore\n      0x20\n      add\n      0x00\n      keccak256\n        /* \"contracts/Webbb3.sol\":1412:1449  votes[currentVoting][msg.sender].date */\n      0x01\n      add\n        /* \"contracts/Webbb3.sol\":1412:1467  votes[currentVoting][msg.sender].date = block.timestamp */\n      dup2\n      swap1\n      sstore\n      pop\n        /* \"contracts/Webbb3.sol\":1494:1495  1 */\n      0x01\n        /* \"contracts/Webbb3.sol\":1484:1490  choice */\n      dup2\n        /* \"contracts/Webbb3.sol\":1484:1495  choice == 1 */\n      eq\n        /* \"contracts/Webbb3.sol\":1480:1575  if (choice == 1) votings[currentVoting].votes1++;\r... */\n      iszero\n      tag_48\n      jumpi\n        /* \"contracts/Webbb3.sol\":1497:1504  votings */\n      0x02\n        /* \"contracts/Webbb3.sol\":1505:1518  currentVoting */\n      sload(0x01)\n        /* \"contracts/Webbb3.sol\":1497:1519  votings[currentVoting] */\n      dup2\n      sload\n      dup2\n      lt\n      tag_49\n      jumpi\n      tag_50\n      tag_51\n      jump\t// in\n    tag_50:\n    tag_49:\n      swap1\n      0x00\n      mstore\n      keccak256(0x00, 0x20)\n      swap1\n      0x05\n      mul\n      add\n        /* \"contracts/Webbb3.sol\":1497:1526  votings[currentVoting].votes1 */\n      0x01\n      add\n      0x00\n        /* \"contracts/Webbb3.sol\":1497:1528  votings[currentVoting].votes1++ */\n      dup2\n      sload\n      dup1\n      swap3\n      swap2\n      swap1\n      tag_53\n      swap1\n      tag_54\n      jump\t// in\n    tag_53:\n      swap2\n      swap1\n      pop\n      sstore\n      pop\n        /* \"contracts/Webbb3.sol\":1480:1575  if (choice == 1) votings[currentVoting].votes1++;\r... */\n      jump(tag_55)\n    tag_48:\n        /* \"contracts/Webbb3.sol\":1544:1551  votings */\n      0x02\n        /* \"contracts/Webbb3.sol\":1552:1565  currentVoting */\n      sload(0x01)\n        /* \"contracts/Webbb3.sol\":1544:1566  votings[currentVoting] */\n      dup2\n      sload\n      dup2\n      lt\n      tag_56\n      jumpi\n      tag_57\n      tag_51\n      jump\t// in\n    tag_57:\n    tag_56:\n      swap1\n      0x00\n      mstore\n      keccak256(0x00, 0x20)\n      swap1\n      0x05\n      mul\n      add\n        /* \"contracts/Webbb3.sol\":1544:1573  votings[currentVoting].votes2 */\n      0x03\n      add\n      0x00\n        /* \"contracts/Webbb3.sol\":1544:1575  votings[currentVoting].votes2++ */\n      dup2\n      sload\n      dup1\n      swap3\n      swap2\n      swap1\n      tag_59\n      swap1\n      tag_54\n      jump\t// in\n    tag_59:\n      swap2\n      swap1\n      pop\n      sstore\n      pop\n        /* \"contracts/Webbb3.sol\":1480:1575  if (choice == 1) votings[currentVoting].votes1++;\r... */\n    tag_55:\n        /* \"contracts/Webbb3.sol\":1060:1583  function addVote(uint choice) public {\r... */\n      pop\n      jump\t// out\n        /* \"contracts/Webbb3.sol\":287:316  uint public currentVoting = 0 */\n    tag_14:\n      sload(0x01)\n      dup2\n      jump\t// out\n        /* \"contracts/Webbb3.sol\":595:1052  function addVoting(\r... */\n    tag_20:\n        /* \"contracts/Webbb3.sol\":763:768  owner */\n      0x00\n      dup1\n      sload\n      swap1\n      0x0100\n      exp\n      swap1\n      div\n      0xffffffffffffffffffffffffffffffffffffffff\n      and\n        /* \"contracts/Webbb3.sol\":749:768  msg.sender == owner */\n      0xffffffffffffffffffffffffffffffffffffffff\n      and\n        /* \"contracts/Webbb3.sol\":749:759  msg.sender */\n      caller\n        /* \"contracts/Webbb3.sol\":749:768  msg.sender == owner */\n      0xffffffffffffffffffffffffffffffffffffffff\n      and\n      eq\n        /* \"contracts/Webbb3.sol\":741:787  require(msg.sender == owner, \"Invalid sender\") */\n      tag_61\n      jumpi\n      mload(0x40)\n      0x08c379a000000000000000000000000000000000000000000000000000000000\n      dup2\n      mstore\n      0x04\n      add\n      tag_62\n      swap1\n      tag_63\n      jump\t// in\n    tag_62:\n      mload(0x40)\n      dup1\n      swap2\n      sub\n      swap1\n      revert\n    tag_61:\n        /* \"contracts/Webbb3.sol\":820:821  0 */\n      0x00\n        /* \"contracts/Webbb3.sol\":803:810  votings */\n      0x02\n        /* \"contracts/Webbb3.sol\":803:817  votings.length */\n      dup1\n      sload\n      swap1\n      pop\n        /* \"contracts/Webbb3.sol\":803:821  votings.length !=0 */\n      eq\n        /* \"contracts/Webbb3.sol\":800:839  if(votings.length !=0) currentVoting ++ */\n      tag_64\n      jumpi\n        /* \"contracts/Webbb3.sol\":823:836  currentVoting */\n      0x01\n      0x00\n        /* \"contracts/Webbb3.sol\":823:839  currentVoting ++ */\n      dup2\n      sload\n      dup1\n      swap3\n      swap2\n      swap1\n      tag_65\n      swap1\n      tag_54\n      jump\t// in\n    tag_65:\n      swap2\n      swap1\n      pop\n      sstore\n      pop\n        /* \"contracts/Webbb3.sol\":800:839  if(votings.length !=0) currentVoting ++ */\n    tag_64:\n        /* \"contracts/Webbb3.sol\":852:875  Voting memory newVoting */\n      tag_66\n      tag_67\n      jump\t// in\n    tag_66:\n        /* \"contracts/Webbb3.sol\":906:913  option1 */\n      dup4\n        /* \"contracts/Webbb3.sol\":886:895  newVoting */\n      dup2\n        /* \"contracts/Webbb3.sol\":886:903  newVoting.option1 */\n      0x00\n      add\n        /* \"contracts/Webbb3.sol\":886:913  newVoting.option1 = option1 */\n      dup2\n      swap1\n      mstore\n      pop\n        /* \"contracts/Webbb3.sol\":944:951  option2 */\n      dup3\n        /* \"contracts/Webbb3.sol\":924:933  newVoting */\n      dup2\n        /* \"contracts/Webbb3.sol\":924:941  newVoting.option2 */\n      0x40\n      add\n        /* \"contracts/Webbb3.sol\":924:951  newVoting.option2 = option2 */\n      dup2\n      swap1\n      mstore\n      pop\n        /* \"contracts/Webbb3.sol\":995:1010  block.timestamp */\n      timestamp\n        /* \"contracts/Webbb3.sol\":982:992  timeToVote */\n      dup3\n        /* \"contracts/Webbb3.sol\":982:1010  timeToVote + block.timestamp */\n      tag_68\n      swap2\n      swap1\n      tag_69\n      jump\t// in\n    tag_68:\n        /* \"contracts/Webbb3.sol\":962:971  newVoting */\n      dup2\n        /* \"contracts/Webbb3.sol\":962:979  newVoting.maxDate */\n      0x80\n      add\n        /* \"contracts/Webbb3.sol\":962:1010  newVoting.maxDate = timeToVote + block.timestamp */\n      dup2\n      dup2\n      mstore\n      pop\n      pop\n        /* \"contracts/Webbb3.sol\":1021:1028  votings */\n      0x02\n        /* \"contracts/Webbb3.sol\":1034:1043  newVoting */\n      dup2\n        /* \"contracts/Webbb3.sol\":1021:1044  votings.push(newVoting) */\n      swap1\n      dup1\n      0x01\n      dup2\n      sload\n      add\n      dup1\n      dup3\n      sstore\n      dup1\n      swap2\n      pop\n      pop\n      0x01\n      swap1\n      sub\n      swap1\n      0x00\n      mstore\n      keccak256(0x00, 0x20)\n      swap1\n      0x05\n      mul\n      add\n      0x00\n      swap1\n      swap2\n      swap1\n      swap2\n      swap1\n      swap2\n      pop\n      0x00\n      dup3\n      add\n      mload\n      dup2\n      0x00\n      add\n      swap1\n      dup1\n      mload\n      swap1\n      0x20\n      add\n      swap1\n      tag_71\n      swap3\n      swap2\n      swap1\n      tag_72\n      jump\t// in\n    tag_71:\n      pop\n      0x20\n      dup3\n      add\n      mload\n      dup2\n      0x01\n      add\n      sstore\n      0x40\n      dup3\n      add\n      mload\n      dup2\n      0x02\n      add\n      swap1\n      dup1\n      mload\n      swap1\n      0x20\n      add\n      swap1\n      tag_73\n      swap3\n      swap2\n      swap1\n      tag_72\n      jump\t// in\n    tag_73:\n      pop\n      0x60\n      dup3\n      add\n      mload\n      dup2\n      0x03\n      add\n      sstore\n      0x80\n      dup3\n      add\n      mload\n      dup2\n      0x04\n      add\n      sstore\n      pop\n      pop\n        /* \"contracts/Webbb3.sol\":726:1052  {\r... */\n      pop\n        /* \"contracts/Webbb3.sol\":595:1052  function addVoting(\r... */\n      pop\n      pop\n      pop\n      jump\t// out\n        /* \"contracts/Webbb3.sol\":323:346  Voting[] public votings */\n    tag_23:\n      0x02\n      dup2\n      dup2\n      sload\n      dup2\n      lt\n      tag_74\n      jumpi\n      0x00\n      dup1\n      revert\n    tag_74:\n      swap1\n      0x00\n      mstore\n      keccak256(0x00, 0x20)\n      swap1\n      0x05\n      mul\n      add\n      0x00\n      swap2\n      pop\n      swap1\n      pop\n      dup1\n      0x00\n      add\n      dup1\n      sload\n      tag_76\n      swap1\n      tag_77\n      jump\t// in\n    tag_76:\n      dup1\n      0x1f\n      add\n      0x20\n      dup1\n      swap2\n      div\n      mul\n      0x20\n      add\n      mload(0x40)\n      swap1\n      dup2\n      add\n      0x40\n      mstore\n      dup1\n      swap3\n      swap2\n      swap1\n      dup2\n      dup2\n      mstore\n      0x20\n      add\n      dup3\n      dup1\n      sload\n      tag_78\n      swap1\n      tag_77\n      jump\t// in\n    tag_78:\n      dup1\n      iszero\n      tag_79\n      jumpi\n      dup1\n      0x1f\n      lt\n      tag_80\n      jumpi\n      0x0100\n      dup1\n      dup4\n      sload\n      div\n      mul\n      dup4\n      mstore\n      swap2\n      0x20\n      add\n      swap2\n      jump(tag_79)\n    tag_80:\n      dup3\n      add\n      swap2\n      swap1\n      0x00\n      mstore\n      keccak256(0x00, 0x20)\n      swap1\n    tag_81:\n      dup2\n      sload\n      dup2\n      mstore\n      swap1\n      0x01\n      add\n      swap1\n      0x20\n      add\n      dup1\n      dup4\n      gt\n      tag_81\n      jumpi\n      dup3\n      swap1\n      sub\n      0x1f\n      and\n      dup3\n      add\n      swap2\n    tag_79:\n      pop\n      pop\n      pop\n      pop\n      pop\n      swap1\n      dup1\n      0x01\n      add\n      sload\n      swap1\n      dup1\n      0x02\n      add\n      dup1\n      sload\n      tag_82\n      swap1\n      tag_77\n      jump\t// in\n    tag_82:\n      dup1\n      0x1f\n      add\n      0x20\n      dup1\n      swap2\n      div\n      mul\n      0x20\n      add\n      mload(0x40)\n      swap1\n      dup2\n      add\n      0x40\n      mstore\n      dup1\n      swap3\n      swap2\n      swap1\n      dup2\n      dup2\n      mstore\n      0x20\n      add\n      dup3\n      dup1\n      sload\n      tag_83\n      swap1\n      tag_77\n      jump\t// in\n    tag_83:\n      dup1\n      iszero\n      tag_84\n      jumpi\n      dup1\n      0x1f\n      lt\n      tag_85\n      jumpi\n      0x0100\n      dup1\n      dup4\n      sload\n      div\n      mul\n      dup4\n      mstore\n      swap2\n      0x20\n      add\n      swap2\n      jump(tag_84)\n    tag_85:\n      dup3\n      add\n      swap2\n      swap1\n      0x00\n      mstore\n      keccak256(0x00, 0x20)\n      swap1\n    tag_86:\n      dup2\n      sload\n      dup2\n      mstore\n      swap1\n      0x01\n      add\n      swap1\n      0x20\n      add\n      dup1\n      dup4\n      gt\n      tag_86\n      jumpi\n      dup3\n      swap1\n      sub\n      0x1f\n      and\n      dup3\n      add\n      swap2\n    tag_84:\n      pop\n      pop\n      pop\n      pop\n      pop\n      swap1\n      dup1\n      0x03\n      add\n      sload\n      swap1\n      dup1\n      0x04\n      add\n      sload\n      swap1\n      pop\n      dup6\n      jump\t// out\n        /* \"contracts/Webbb3.sol\":353:407  mapping (uint => mapping(address => Vote))public votes */\n    tag_29:\n      mstore(0x20, 0x03)\n      dup2\n      0x00\n      mstore\n      mstore(0x20, keccak256(0x00, 0x40))\n      dup1\n      0x00\n      mstore\n      keccak256(0x00, 0x40)\n      0x00\n      swap2\n      pop\n      swap2\n      pop\n      pop\n      dup1\n      0x00\n      add\n      sload\n      swap1\n      dup1\n      0x01\n      add\n      sload\n      swap1\n      pop\n      dup3\n      jump\t// out\n        /* \"contracts/Webbb3.sol\":474:587  function getCurrentVoting() public view returns (Voting memory) {\r... */\n    tag_33:\n        /* \"contracts/Webbb3.sol\":523:536  Voting memory */\n      tag_87\n      tag_67\n      jump\t// in\n    tag_87:\n        /* \"contracts/Webbb3.sol\":556:563  votings */\n      0x02\n        /* \"contracts/Webbb3.sol\":565:578  currentVoting */\n      sload(0x01)\n        /* \"contracts/Webbb3.sol\":556:579  votings [currentVoting] */\n      dup2\n      sload\n      dup2\n      lt\n      tag_89\n      jumpi\n      tag_90\n      tag_51\n      jump\t// in\n    tag_90:\n    tag_89:\n      swap1\n      0x00\n      mstore\n      keccak256(0x00, 0x20)\n      swap1\n      0x05\n      mul\n      add\n        /* \"contracts/Webbb3.sol\":549:579  return votings [currentVoting] */\n      mload(0x40)\n      dup1\n      0xa0\n      add\n      0x40\n      mstore\n      swap1\n      dup2\n      0x00\n      dup3\n      add\n      dup1\n      sload\n      tag_92\n      swap1\n      tag_77\n      jump\t// in\n    tag_92:\n      dup1\n      0x1f\n      add\n      0x20\n      dup1\n      swap2\n      div\n      mul\n      0x20\n      add\n      mload(0x40)\n      swap1\n      dup2\n      add\n      0x40\n      mstore\n      dup1\n      swap3\n      swap2\n      swap1\n      dup2\n      dup2\n      mstore\n      0x20\n      add\n      dup3\n      dup1\n      sload\n      tag_93\n      swap1\n      tag_77\n      jump\t// in\n    tag_93:\n      dup1\n      iszero\n      tag_94\n      jumpi\n      dup1\n      0x1f\n      lt\n      tag_95\n      jumpi\n      0x0100\n      dup1\n      dup4\n      sload\n      div\n      mul\n      dup4\n      mstore\n      swap2\n      0x20\n      add\n      swap2\n      jump(tag_94)\n    tag_95:\n      dup3\n      add\n      swap2\n      swap1\n      0x00\n      mstore\n      keccak256(0x00, 0x20)\n      swap1\n    tag_96:\n      dup2\n      sload\n      dup2\n      mstore\n      swap1\n      0x01\n      add\n      swap1\n      0x20\n      add\n      dup1\n      dup4\n      gt\n      tag_96\n      jumpi\n      dup3\n      swap1\n      sub\n      0x1f\n      and\n      dup3\n      add\n      swap2\n    tag_94:\n      pop\n      pop\n      pop\n      pop\n      pop\n      dup2\n      mstore\n      0x20\n      add\n      0x01\n      dup3\n      add\n      sload\n      dup2\n      mstore\n      0x20\n      add\n      0x02\n      dup3\n      add\n      dup1\n      sload\n      tag_97\n      swap1\n      tag_77\n      jump\t// in\n    tag_97:\n      dup1\n      0x1f\n      add\n      0x20\n      dup1\n      swap2\n      div\n      mul\n      0x20\n      add\n      mload(0x40)\n      swap1\n      dup2\n      add\n      0x40\n      mstore\n      dup1\n      swap3\n      swap2\n      swap1\n      dup2\n      dup2\n      mstore\n      0x20\n      add\n      dup3\n      dup1\n      sload\n      tag_98\n      swap1\n      tag_77\n      jump\t// in\n    tag_98:\n      dup1\n      iszero\n      tag_99\n      jumpi\n      dup1\n      0x1f\n      lt\n      tag_100\n      jumpi\n      0x0100\n      dup1\n      dup4\n      sload\n      div\n      mul\n      dup4\n      mstore\n      swap2\n      0x20\n      add\n      swap2\n      jump(tag_99)\n    tag_100:\n      dup3\n      add\n      swap2\n      swap1\n      0x00\n      mstore\n      keccak256(0x00, 0x20)\n      swap1\n    tag_101:\n      dup2\n      sload\n      dup2\n      mstore\n      swap1\n      0x01\n      add\n      swap1\n      0x20\n      add\n      dup1\n      dup4\n      gt\n      tag_101\n      jumpi\n      dup3\n      swap1\n      sub\n      0x1f\n      and\n      dup3\n      add\n      swap2\n    tag_99:\n      pop\n      pop\n      pop\n      pop\n      pop\n      dup2\n      mstore\n      0x20\n      add\n      0x03\n      dup3\n      add\n      sload\n      dup2\n      mstore\n      0x20\n      add\n      0x04\n      dup3\n      add\n      sload\n      dup2\n      mstore\n      pop\n      pop\n      swap1\n      pop\n        /* \"contracts/Webbb3.sol\":474:587  function getCurrentVoting() public view returns (Voting memory) {\r... */\n      swap1\n      jump\t// out\n    tag_67:\n      mload(0x40)\n      dup1\n      0xa0\n      add\n      0x40\n      mstore\n      dup1\n      0x60\n      dup2\n      mstore\n      0x20\n      add\n      0x00\n      dup2\n      mstore\n      0x20\n      add\n      0x60\n      dup2\n      mstore\n      0x20\n      add\n      0x00\n      dup2\n      mstore\n      0x20\n      add\n      0x00\n      dup2\n      mstore\n      pop\n      swap1\n      jump\t// out\n    tag_72:\n      dup3\n      dup1\n      sload\n      tag_102\n      swap1\n      tag_77\n      jump\t// in\n    tag_102:\n      swap1\n      0x00\n      mstore\n      keccak256(0x00, 0x20)\n      swap1\n      0x1f\n      add\n      0x20\n      swap1\n      div\n      dup2\n      add\n      swap3\n      dup3\n      tag_104\n      jumpi\n      0x00\n      dup6\n      sstore\n      jump(tag_103)\n    tag_104:\n      dup3\n      0x1f\n      lt\n      tag_105\n      jumpi\n      dup1\n      mload\n      not(0xff)\n      and\n      dup4\n      dup1\n      add\n      or\n      dup6\n      sstore\n      jump(tag_103)\n    tag_105:\n      dup3\n      dup1\n      add\n      0x01\n      add\n      dup6\n      sstore\n      dup3\n      iszero\n      tag_103\n      jumpi\n      swap2\n      dup3\n      add\n    tag_106:\n      dup3\n      dup2\n      gt\n      iszero\n      tag_107\n      jumpi\n      dup3\n      mload\n      dup3\n      sstore\n      swap2\n      0x20\n      add\n      swap2\n      swap1\n      0x01\n      add\n      swap1\n      jump(tag_106)\n    tag_107:\n    tag_103:\n      pop\n      swap1\n      pop\n      tag_108\n      swap2\n      swap1\n      tag_109\n      jump\t// in\n    tag_108:\n      pop\n      swap1\n      jump\t// out\n    tag_109:\n    tag_110:\n      dup1\n      dup3\n      gt\n      iszero\n      tag_111\n      jumpi\n      0x00\n      dup2\n      0x00\n      swap1\n      sstore\n      pop\n      0x01\n      add\n      jump(tag_110)\n    tag_111:\n      pop\n      swap1\n      jump\t// out\n        /* \"#utility.yul\":7:419   */\n    tag_113:\n        /* \"#utility.yul\":85:90   */\n      0x00\n        /* \"#utility.yul\":110:176   */\n      tag_115\n        /* \"#utility.yul\":126:175   */\n      tag_116\n        /* \"#utility.yul\":168:174   */\n      dup5\n        /* \"#utility.yul\":126:175   */\n      tag_117\n      jump\t// in\n    tag_116:\n        /* \"#utility.yul\":110:176   */\n      tag_118\n      jump\t// in\n    tag_115:\n        /* \"#utility.yul\":101:176   */\n      swap1\n      pop\n        /* \"#utility.yul\":199:205   */\n      dup3\n        /* \"#utility.yul\":192:197   */\n      dup2\n        /* \"#utility.yul\":185:206   */\n      mstore\n        /* \"#utility.yul\":237:241   */\n      0x20\n        /* \"#utility.yul\":230:235   */\n      dup2\n        /* \"#utility.yul\":226:242   */\n      add\n        /* \"#utility.yul\":275:278   */\n      dup5\n        /* \"#utility.yul\":266:272   */\n      dup5\n        /* \"#utility.yul\":261:264   */\n      dup5\n        /* \"#utility.yul\":257:273   */\n      add\n        /* \"#utility.yul\":254:279   */\n      gt\n        /* \"#utility.yul\":251:363   */\n      iszero\n      tag_119\n      jumpi\n        /* \"#utility.yul\":282:361   */\n      tag_120\n      tag_121\n      jump\t// in\n    tag_120:\n        /* \"#utility.yul\":251:363   */\n    tag_119:\n        /* \"#utility.yul\":372:413   */\n      tag_122\n        /* \"#utility.yul\":406:412   */\n      dup5\n        /* \"#utility.yul\":401:404   */\n      dup3\n        /* \"#utility.yul\":396:399   */\n      dup6\n        /* \"#utility.yul\":372:413   */\n      tag_123\n      jump\t// in\n    tag_122:\n        /* \"#utility.yul\":91:419   */\n      pop\n        /* \"#utility.yul\":7:419   */\n      swap4\n      swap3\n      pop\n      pop\n      pop\n      jump\t// out\n        /* \"#utility.yul\":425:564   */\n    tag_124:\n        /* \"#utility.yul\":471:476   */\n      0x00\n        /* \"#utility.yul\":509:515   */\n      dup2\n        /* \"#utility.yul\":496:516   */\n      calldataload\n        /* \"#utility.yul\":487:516   */\n      swap1\n      pop\n        /* \"#utility.yul\":525:558   */\n      tag_126\n        /* \"#utility.yul\":552:557   */\n      dup2\n        /* \"#utility.yul\":525:558   */\n      tag_127\n      jump\t// in\n    tag_126:\n        /* \"#utility.yul\":425:564   */\n      swap3\n      swap2\n      pop\n      pop\n      jump\t// out\n        /* \"#utility.yul\":584:924   */\n    tag_128:\n        /* \"#utility.yul\":640:645   */\n      0x00\n        /* \"#utility.yul\":689:692   */\n      dup3\n        /* \"#utility.yul\":682:686   */\n      0x1f\n        /* \"#utility.yul\":674:680   */\n      dup4\n        /* \"#utility.yul\":670:687   */\n      add\n        /* \"#utility.yul\":666:693   */\n      slt\n        /* \"#utility.yul\":656:778   */\n      tag_130\n      jumpi\n        /* \"#utility.yul\":697:776   */\n      tag_131\n      tag_132\n      jump\t// in\n    tag_131:\n        /* \"#utility.yul\":656:778   */\n    tag_130:\n        /* \"#utility.yul\":814:820   */\n      dup2\n        /* \"#utility.yul\":801:821   */\n      calldataload\n        /* \"#utility.yul\":839:918   */\n      tag_133\n        /* \"#utility.yul\":914:917   */\n      dup5\n        /* \"#utility.yul\":906:912   */\n      dup3\n        /* \"#utility.yul\":899:903   */\n      0x20\n        /* \"#utility.yul\":891:897   */\n      dup7\n        /* \"#utility.yul\":887:904   */\n      add\n        /* \"#utility.yul\":839:918   */\n      tag_113\n      jump\t// in\n    tag_133:\n        /* \"#utility.yul\":830:918   */\n      swap2\n      pop\n        /* \"#utility.yul\":646:924   */\n      pop\n        /* \"#utility.yul\":584:924   */\n      swap3\n      swap2\n      pop\n      pop\n      jump\t// out\n        /* \"#utility.yul\":930:1069   */\n    tag_134:\n        /* \"#utility.yul\":976:981   */\n      0x00\n        /* \"#utility.yul\":1014:1020   */\n      dup2\n        /* \"#utility.yul\":1001:1021   */\n      calldataload\n        /* \"#utility.yul\":992:1021   */\n      swap1\n      pop\n        /* \"#utility.yul\":1030:1063   */\n      tag_136\n        /* \"#utility.yul\":1057:1062   */\n      dup2\n        /* \"#utility.yul\":1030:1063   */\n      tag_137\n      jump\t// in\n    tag_136:\n        /* \"#utility.yul\":930:1069   */\n      swap3\n      swap2\n      pop\n      pop\n      jump\t// out\n        /* \"#utility.yul\":1075:2054   */\n    tag_19:\n        /* \"#utility.yul\":1172:1178   */\n      0x00\n        /* \"#utility.yul\":1180:1186   */\n      dup1\n        /* \"#utility.yul\":1188:1194   */\n      0x00\n        /* \"#utility.yul\":1237:1239   */\n      0x60\n        /* \"#utility.yul\":1225:1234   */\n      dup5\n        /* \"#utility.yul\":1216:1223   */\n      dup7\n        /* \"#utility.yul\":1212:1235   */\n      sub\n        /* \"#utility.yul\":1208:1240   */\n      slt\n        /* \"#utility.yul\":1205:1324   */\n      iszero\n      tag_139\n      jumpi\n        /* \"#utility.yul\":1243:1322   */\n      tag_140\n      tag_141\n      jump\t// in\n    tag_140:\n        /* \"#utility.yul\":1205:1324   */\n    tag_139:\n        /* \"#utility.yul\":1391:1392   */\n      0x00\n        /* \"#utility.yul\":1380:1389   */\n      dup5\n        /* \"#utility.yul\":1376:1393   */\n      add\n        /* \"#utility.yul\":1363:1394   */\n      calldataload\n        /* \"#utility.yul\":1421:1439   */\n      0xffffffffffffffff\n        /* \"#utility.yul\":1413:1419   */\n      dup2\n        /* \"#utility.yul\":1410:1440   */\n      gt\n        /* \"#utility.yul\":1407:1524   */\n      iszero\n      tag_142\n      jumpi\n        /* \"#utility.yul\":1443:1522   */\n      tag_143\n      tag_144\n      jump\t// in\n    tag_143:\n        /* \"#utility.yul\":1407:1524   */\n    tag_142:\n        /* \"#utility.yul\":1548:1611   */\n      tag_145\n        /* \"#utility.yul\":1603:1610   */\n      dup7\n        /* \"#utility.yul\":1594:1600   */\n      dup3\n        /* \"#utility.yul\":1583:1592   */\n      dup8\n        /* \"#utility.yul\":1579:1601   */\n      add\n        /* \"#utility.yul\":1548:1611   */\n      tag_128\n      jump\t// in\n    tag_145:\n        /* \"#utility.yul\":1538:1611   */\n      swap4\n      pop\n        /* \"#utility.yul\":1334:1621   */\n      pop\n        /* \"#utility.yul\":1688:1690   */\n      0x20\n        /* \"#utility.yul\":1677:1686   */\n      dup5\n        /* \"#utility.yul\":1673:1691   */\n      add\n        /* \"#utility.yul\":1660:1692   */\n      calldataload\n        /* \"#utility.yul\":1719:1737   */\n      0xffffffffffffffff\n        /* \"#utility.yul\":1711:1717   */\n      dup2\n        /* \"#utility.yul\":1708:1738   */\n      gt\n        /* \"#utility.yul\":1705:1822   */\n      iszero\n      tag_146\n      jumpi\n        /* \"#utility.yul\":1741:1820   */\n      tag_147\n      tag_144\n      jump\t// in\n    tag_147:\n        /* \"#utility.yul\":1705:1822   */\n    tag_146:\n        /* \"#utility.yul\":1846:1909   */\n      tag_148\n        /* \"#utility.yul\":1901:1908   */\n      dup7\n        /* \"#utility.yul\":1892:1898   */\n      dup3\n        /* \"#utility.yul\":1881:1890   */\n      dup8\n        /* \"#utility.yul\":1877:1899   */\n      add\n        /* \"#utility.yul\":1846:1909   */\n      tag_128\n      jump\t// in\n    tag_148:\n        /* \"#utility.yul\":1836:1909   */\n      swap3\n      pop\n        /* \"#utility.yul\":1631:1919   */\n      pop\n        /* \"#utility.yul\":1958:1960   */\n      0x40\n        /* \"#utility.yul\":1984:2037   */\n      tag_149\n        /* \"#utility.yul\":2029:2036   */\n      dup7\n        /* \"#utility.yul\":2020:2026   */\n      dup3\n        /* \"#utility.yul\":2009:2018   */\n      dup8\n        /* \"#utility.yul\":2005:2027   */\n      add\n        /* \"#utility.yul\":1984:2037   */\n      tag_134\n      jump\t// in\n    tag_149:\n        /* \"#utility.yul\":1974:2037   */\n      swap2\n      pop\n        /* \"#utility.yul\":1929:2047   */\n      pop\n        /* \"#utility.yul\":1075:2054   */\n      swap3\n      pop\n      swap3\n      pop\n      swap3\n      jump\t// out\n        /* \"#utility.yul\":2060:2389   */\n    tag_11:\n        /* \"#utility.yul\":2119:2125   */\n      0x00\n        /* \"#utility.yul\":2168:2170   */\n      0x20\n        /* \"#utility.yul\":2156:2165   */\n      dup3\n        /* \"#utility.yul\":2147:2154   */\n      dup5\n        /* \"#utility.yul\":2143:2166   */\n      sub\n        /* \"#utility.yul\":2139:2171   */\n      slt\n        /* \"#utility.yul\":2136:2255   */\n      iszero\n      tag_151\n      jumpi\n        /* \"#utility.yul\":2174:2253   */\n      tag_152\n      tag_141\n      jump\t// in\n    tag_152:\n        /* \"#utility.yul\":2136:2255   */\n    tag_151:\n        /* \"#utility.yul\":2294:2295   */\n      0x00\n        /* \"#utility.yul\":2319:2372   */\n      tag_153\n        /* \"#utility.yul\":2364:2371   */\n      dup5\n        /* \"#utility.yul\":2355:2361   */\n      dup3\n        /* \"#utility.yul\":2344:2353   */\n      dup6\n        /* \"#utility.yul\":2340:2362   */\n      add\n        /* \"#utility.yul\":2319:2372   */\n      tag_134\n      jump\t// in\n    tag_153:\n        /* \"#utility.yul\":2309:2372   */\n      swap2\n      pop\n        /* \"#utility.yul\":2265:2382   */\n      pop\n        /* \"#utility.yul\":2060:2389   */\n      swap3\n      swap2\n      pop\n      pop\n      jump\t// out\n        /* \"#utility.yul\":2395:2869   */\n    tag_28:\n        /* \"#utility.yul\":2463:2469   */\n      0x00\n        /* \"#utility.yul\":2471:2477   */\n      dup1\n        /* \"#utility.yul\":2520:2522   */\n      0x40\n        /* \"#utility.yul\":2508:2517   */\n      dup4\n        /* \"#utility.yul\":2499:2506   */\n      dup6\n        /* \"#utility.yul\":2495:2518   */\n      sub\n        /* \"#utility.yul\":2491:2523   */\n      slt\n        /* \"#utility.yul\":2488:2607   */\n      iszero\n      tag_155\n      jumpi\n        /* \"#utility.yul\":2526:2605   */\n      tag_156\n      tag_141\n      jump\t// in\n    tag_156:\n        /* \"#utility.yul\":2488:2607   */\n    tag_155:\n        /* \"#utility.yul\":2646:2647   */\n      0x00\n        /* \"#utility.yul\":2671:2724   */\n      tag_157\n        /* \"#utility.yul\":2716:2723   */\n      dup6\n        /* \"#utility.yul\":2707:2713   */\n      dup3\n        /* \"#utility.yul\":2696:2705   */\n      dup7\n        /* \"#utility.yul\":2692:2714   */\n      add\n        /* \"#utility.yul\":2671:2724   */\n      tag_134\n      jump\t// in\n    tag_157:\n        /* \"#utility.yul\":2661:2724   */\n      swap3\n      pop\n        /* \"#utility.yul\":2617:2734   */\n      pop\n        /* \"#utility.yul\":2773:2775   */\n      0x20\n        /* \"#utility.yul\":2799:2852   */\n      tag_158\n        /* \"#utility.yul\":2844:2851   */\n      dup6\n        /* \"#utility.yul\":2835:2841   */\n      dup3\n        /* \"#utility.yul\":2824:2833   */\n      dup7\n        /* \"#utility.yul\":2820:2842   */\n      add\n        /* \"#utility.yul\":2799:2852   */\n      tag_124\n      jump\t// in\n    tag_158:\n        /* \"#utility.yul\":2789:2852   */\n      swap2\n      pop\n        /* \"#utility.yul\":2744:2862   */\n      pop\n        /* \"#utility.yul\":2395:2869   */\n      swap3\n      pop\n      swap3\n      swap1\n      pop\n      jump\t// out\n        /* \"#utility.yul\":2875:3219   */\n    tag_159:\n        /* \"#utility.yul\":2953:2956   */\n      0x00\n        /* \"#utility.yul\":2981:3020   */\n      tag_161\n        /* \"#utility.yul\":3014:3019   */\n      dup3\n        /* \"#utility.yul\":2981:3020   */\n      tag_162\n      jump\t// in\n    tag_161:\n        /* \"#utility.yul\":3036:3097   */\n      tag_163\n        /* \"#utility.yul\":3090:3096   */\n      dup2\n        /* \"#utility.yul\":3085:3088   */\n      dup6\n        /* \"#utility.yul\":3036:3097   */\n      tag_164\n      jump\t// in\n    tag_163:\n        /* \"#utility.yul\":3029:3097   */\n      swap4\n      pop\n        /* \"#utility.yul\":3106:3158   */\n      tag_165\n        /* \"#utility.yul\":3151:3157   */\n      dup2\n        /* \"#utility.yul\":3146:3149   */\n      dup6\n        /* \"#utility.yul\":3139:3143   */\n      0x20\n        /* \"#utility.yul\":3132:3137   */\n      dup7\n        /* \"#utility.yul\":3128:3144   */\n      add\n        /* \"#utility.yul\":3106:3158   */\n      tag_166\n      jump\t// in\n    tag_165:\n        /* \"#utility.yul\":3183:3212   */\n      tag_167\n        /* \"#utility.yul\":3205:3211   */\n      dup2\n        /* \"#utility.yul\":3183:3212   */\n      tag_168\n      jump\t// in\n    tag_167:\n        /* \"#utility.yul\":3178:3181   */\n      dup5\n        /* \"#utility.yul\":3174:3213   */\n      add\n        /* \"#utility.yul\":3167:3213   */\n      swap2\n      pop\n        /* \"#utility.yul\":2957:3219   */\n      pop\n        /* \"#utility.yul\":2875:3219   */\n      swap3\n      swap2\n      pop\n      pop\n      jump\t// out\n        /* \"#utility.yul\":3225:3589   */\n    tag_169:\n        /* \"#utility.yul\":3313:3316   */\n      0x00\n        /* \"#utility.yul\":3341:3380   */\n      tag_171\n        /* \"#utility.yul\":3374:3379   */\n      dup3\n        /* \"#utility.yul\":3341:3380   */\n      tag_162\n      jump\t// in\n    tag_171:\n        /* \"#utility.yul\":3396:3467   */\n      tag_172\n        /* \"#utility.yul\":3460:3466   */\n      dup2\n        /* \"#utility.yul\":3455:3458   */\n      dup6\n        /* \"#utility.yul\":3396:3467   */\n      tag_173\n      jump\t// in\n    tag_172:\n        /* \"#utility.yul\":3389:3467   */\n      swap4\n      pop\n        /* \"#utility.yul\":3476:3528   */\n      tag_174\n        /* \"#utility.yul\":3521:3527   */\n      dup2\n        /* \"#utility.yul\":3516:3519   */\n      dup6\n        /* \"#utility.yul\":3509:3513   */\n      0x20\n        /* \"#utility.yul\":3502:3507   */\n      dup7\n        /* \"#utility.yul\":3498:3514   */\n      add\n        /* \"#utility.yul\":3476:3528   */\n      tag_166\n      jump\t// in\n    tag_174:\n        /* \"#utility.yul\":3553:3582   */\n      tag_175\n        /* \"#utility.yul\":3575:3581   */\n      dup2\n        /* \"#utility.yul\":3553:3582   */\n      tag_168\n      jump\t// in\n    tag_175:\n        /* \"#utility.yul\":3548:3551   */\n      dup5\n        /* \"#utility.yul\":3544:3583   */\n      add\n        /* \"#utility.yul\":3537:3583   */\n      swap2\n      pop\n        /* \"#utility.yul\":3317:3589   */\n      pop\n        /* \"#utility.yul\":3225:3589   */\n      swap3\n      swap2\n      pop\n      pop\n      jump\t// out\n        /* \"#utility.yul\":3595:3961   */\n    tag_176:\n        /* \"#utility.yul\":3737:3740   */\n      0x00\n        /* \"#utility.yul\":3758:3825   */\n      tag_178\n        /* \"#utility.yul\":3822:3824   */\n      0x20\n        /* \"#utility.yul\":3817:3820   */\n      dup4\n        /* \"#utility.yul\":3758:3825   */\n      tag_173\n      jump\t// in\n    tag_178:\n        /* \"#utility.yul\":3751:3825   */\n      swap2\n      pop\n        /* \"#utility.yul\":3834:3927   */\n      tag_179\n        /* \"#utility.yul\":3923:3926   */\n      dup3\n        /* \"#utility.yul\":3834:3927   */\n      tag_180\n      jump\t// in\n    tag_179:\n        /* \"#utility.yul\":3952:3954   */\n      0x20\n        /* \"#utility.yul\":3947:3950   */\n      dup3\n        /* \"#utility.yul\":3943:3955   */\n      add\n        /* \"#utility.yul\":3936:3955   */\n      swap1\n      pop\n        /* \"#utility.yul\":3595:3961   */\n      swap2\n      swap1\n      pop\n      jump\t// out\n        /* \"#utility.yul\":3967:4333   */\n    tag_181:\n        /* \"#utility.yul\":4109:4112   */\n      0x00\n        /* \"#utility.yul\":4130:4197   */\n      tag_183\n        /* \"#utility.yul\":4194:4196   */\n      0x0e\n        /* \"#utility.yul\":4189:4192   */\n      dup4\n        /* \"#utility.yul\":4130:4197   */\n      tag_173\n      jump\t// in\n    tag_183:\n        /* \"#utility.yul\":4123:4197   */\n      swap2\n      pop\n        /* \"#utility.yul\":4206:4299   */\n      tag_184\n        /* \"#utility.yul\":4295:4298   */\n      dup3\n        /* \"#utility.yul\":4206:4299   */\n      tag_185\n      jump\t// in\n    tag_184:\n        /* \"#utility.yul\":4324:4326   */\n      0x20\n        /* \"#utility.yul\":4319:4322   */\n      dup3\n        /* \"#utility.yul\":4315:4327   */\n      add\n        /* \"#utility.yul\":4308:4327   */\n      swap1\n      pop\n        /* \"#utility.yul\":3967:4333   */\n      swap2\n      swap1\n      pop\n      jump\t// out\n        /* \"#utility.yul\":4339:4705   */\n    tag_186:\n        /* \"#utility.yul\":4481:4484   */\n      0x00\n        /* \"#utility.yul\":4502:4569   */\n      tag_188\n        /* \"#utility.yul\":4566:4568   */\n      0x0e\n        /* \"#utility.yul\":4561:4564   */\n      dup4\n        /* \"#utility.yul\":4502:4569   */\n      tag_173\n      jump\t// in\n    tag_188:\n        /* \"#utility.yul\":4495:4569   */\n      swap2\n      pop\n        /* \"#utility.yul\":4578:4671   */\n      tag_189\n        /* \"#utility.yul\":4667:4670   */\n      dup3\n        /* \"#utility.yul\":4578:4671   */\n      tag_190\n      jump\t// in\n    tag_189:\n        /* \"#utility.yul\":4696:4698   */\n      0x20\n        /* \"#utility.yul\":4691:4694   */\n      dup3\n        /* \"#utility.yul\":4687:4699   */\n      add\n        /* \"#utility.yul\":4680:4699   */\n      swap1\n      pop\n        /* \"#utility.yul\":4339:4705   */\n      swap2\n      swap1\n      pop\n      jump\t// out\n        /* \"#utility.yul\":4711:5077   */\n    tag_191:\n        /* \"#utility.yul\":4853:4856   */\n      0x00\n        /* \"#utility.yul\":4874:4941   */\n      tag_193\n        /* \"#utility.yul\":4938:4940   */\n      0x0e\n        /* \"#utility.yul\":4933:4936   */\n      dup4\n        /* \"#utility.yul\":4874:4941   */\n      tag_173\n      jump\t// in\n    tag_193:\n        /* \"#utility.yul\":4867:4941   */\n      swap2\n      pop\n        /* \"#utility.yul\":4950:5043   */\n      tag_194\n        /* \"#utility.yul\":5039:5042   */\n      dup3\n        /* \"#utility.yul\":4950:5043   */\n      tag_195\n      jump\t// in\n    tag_194:\n        /* \"#utility.yul\":5068:5070   */\n      0x20\n        /* \"#utility.yul\":5063:5066   */\n      dup3\n        /* \"#utility.yul\":5059:5071   */\n      add\n        /* \"#utility.yul\":5052:5071   */\n      swap1\n      pop\n        /* \"#utility.yul\":4711:5077   */\n      swap2\n      swap1\n      pop\n      jump\t// out\n        /* \"#utility.yul\":5121:6327   */\n    tag_196:\n        /* \"#utility.yul\":5234:5237   */\n      0x00\n        /* \"#utility.yul\":5270:5274   */\n      0xa0\n        /* \"#utility.yul\":5265:5268   */\n      dup4\n        /* \"#utility.yul\":5261:5275   */\n      add\n        /* \"#utility.yul\":5360:5364   */\n      0x00\n        /* \"#utility.yul\":5353:5358   */\n      dup4\n        /* \"#utility.yul\":5349:5365   */\n      add\n        /* \"#utility.yul\":5343:5366   */\n      mload\n        /* \"#utility.yul\":5413:5416   */\n      dup5\n        /* \"#utility.yul\":5407:5411   */\n      dup3\n        /* \"#utility.yul\":5403:5417   */\n      sub\n        /* \"#utility.yul\":5396:5400   */\n      0x00\n        /* \"#utility.yul\":5391:5394   */\n      dup7\n        /* \"#utility.yul\":5387:5401   */\n      add\n        /* \"#utility.yul\":5380:5418   */\n      mstore\n        /* \"#utility.yul\":5439:5512   */\n      tag_198\n        /* \"#utility.yul\":5507:5511   */\n      dup3\n        /* \"#utility.yul\":5493:5505   */\n      dup3\n        /* \"#utility.yul\":5439:5512   */\n      tag_159\n      jump\t// in\n    tag_198:\n        /* \"#utility.yul\":5431:5512   */\n      swap2\n      pop\n        /* \"#utility.yul\":5285:5523   */\n      pop\n        /* \"#utility.yul\":5607:5611   */\n      0x20\n        /* \"#utility.yul\":5600:5605   */\n      dup4\n        /* \"#utility.yul\":5596:5612   */\n      add\n        /* \"#utility.yul\":5590:5613   */\n      mload\n        /* \"#utility.yul\":5626:5689   */\n      tag_199\n        /* \"#utility.yul\":5683:5687   */\n      0x20\n        /* \"#utility.yul\":5678:5681   */\n      dup7\n        /* \"#utility.yul\":5674:5688   */\n      add\n        /* \"#utility.yul\":5660:5672   */\n      dup3\n        /* \"#utility.yul\":5626:5689   */\n      tag_200\n      jump\t// in\n    tag_199:\n        /* \"#utility.yul\":5533:5699   */\n      pop\n        /* \"#utility.yul\":5784:5788   */\n      0x40\n        /* \"#utility.yul\":5777:5782   */\n      dup4\n        /* \"#utility.yul\":5773:5789   */\n      add\n        /* \"#utility.yul\":5767:5790   */\n      mload\n        /* \"#utility.yul\":5837:5840   */\n      dup5\n        /* \"#utility.yul\":5831:5835   */\n      dup3\n        /* \"#utility.yul\":5827:5841   */\n      sub\n        /* \"#utility.yul\":5820:5824   */\n      0x40\n        /* \"#utility.yul\":5815:5818   */\n      dup7\n        /* \"#utility.yul\":5811:5825   */\n      add\n        /* \"#utility.yul\":5804:5842   */\n      mstore\n        /* \"#utility.yul\":5863:5936   */\n      tag_201\n        /* \"#utility.yul\":5931:5935   */\n      dup3\n        /* \"#utility.yul\":5917:5929   */\n      dup3\n        /* \"#utility.yul\":5863:5936   */\n      tag_159\n      jump\t// in\n    tag_201:\n        /* \"#utility.yul\":5855:5936   */\n      swap2\n      pop\n        /* \"#utility.yul\":5709:5947   */\n      pop\n        /* \"#utility.yul\":6031:6035   */\n      0x60\n        /* \"#utility.yul\":6024:6029   */\n      dup4\n        /* \"#utility.yul\":6020:6036   */\n      add\n        /* \"#utility.yul\":6014:6037   */\n      mload\n        /* \"#utility.yul\":6050:6113   */\n      tag_202\n        /* \"#utility.yul\":6107:6111   */\n      0x60\n        /* \"#utility.yul\":6102:6105   */\n      dup7\n        /* \"#utility.yul\":6098:6112   */\n      add\n        /* \"#utility.yul\":6084:6096   */\n      dup3\n        /* \"#utility.yul\":6050:6113   */\n      tag_200\n      jump\t// in\n    tag_202:\n        /* \"#utility.yul\":5957:6123   */\n      pop\n        /* \"#utility.yul\":6208:6212   */\n      0x80\n        /* \"#utility.yul\":6201:6206   */\n      dup4\n        /* \"#utility.yul\":6197:6213   */\n      add\n        /* \"#utility.yul\":6191:6214   */\n      mload\n        /* \"#utility.yul\":6227:6290   */\n      tag_203\n        /* \"#utility.yul\":6284:6288   */\n      0x80\n        /* \"#utility.yul\":6279:6282   */\n      dup7\n        /* \"#utility.yul\":6275:6289   */\n      add\n        /* \"#utility.yul\":6261:6273   */\n      dup3\n        /* \"#utility.yul\":6227:6290   */\n      tag_200\n      jump\t// in\n    tag_203:\n        /* \"#utility.yul\":6133:6300   */\n      pop\n        /* \"#utility.yul\":6317:6321   */\n      dup1\n        /* \"#utility.yul\":6310:6321   */\n      swap2\n      pop\n        /* \"#utility.yul\":5239:6327   */\n      pop\n        /* \"#utility.yul\":5121:6327   */\n      swap3\n      swap2\n      pop\n      pop\n      jump\t// out\n        /* \"#utility.yul\":6333:6441   */\n    tag_200:\n        /* \"#utility.yul\":6410:6434   */\n      tag_205\n        /* \"#utility.yul\":6428:6433   */\n      dup2\n        /* \"#utility.yul\":6410:6434   */\n      tag_206\n      jump\t// in\n    tag_205:\n        /* \"#utility.yul\":6405:6408   */\n      dup3\n        /* \"#utility.yul\":6398:6435   */\n      mstore\n        /* \"#utility.yul\":6333:6441   */\n      pop\n      pop\n      jump\t// out\n        /* \"#utility.yul\":6447:6565   */\n    tag_207:\n        /* \"#utility.yul\":6534:6558   */\n      tag_209\n        /* \"#utility.yul\":6552:6557   */\n      dup2\n        /* \"#utility.yul\":6534:6558   */\n      tag_206\n      jump\t// in\n    tag_209:\n        /* \"#utility.yul\":6529:6532   */\n      dup3\n        /* \"#utility.yul\":6522:6559   */\n      mstore\n        /* \"#utility.yul\":6447:6565   */\n      pop\n      pop\n      jump\t// out\n        /* \"#utility.yul\":6571:7417   */\n    tag_25:\n        /* \"#utility.yul\":6816:6820   */\n      0x00\n        /* \"#utility.yul\":6854:6857   */\n      0xa0\n        /* \"#utility.yul\":6843:6852   */\n      dup3\n        /* \"#utility.yul\":6839:6858   */\n      add\n        /* \"#utility.yul\":6831:6858   */\n      swap1\n      pop\n        /* \"#utility.yul\":6904:6913   */\n      dup2\n        /* \"#utility.yul\":6898:6902   */\n      dup2\n        /* \"#utility.yul\":6894:6914   */\n      sub\n        /* \"#utility.yul\":6890:6891   */\n      0x00\n        /* \"#utility.yul\":6879:6888   */\n      dup4\n        /* \"#utility.yul\":6875:6892   */\n      add\n        /* \"#utility.yul\":6868:6915   */\n      mstore\n        /* \"#utility.yul\":6932:7010   */\n      tag_211\n        /* \"#utility.yul\":7005:7009   */\n      dup2\n        /* \"#utility.yul\":6996:7002   */\n      dup9\n        /* \"#utility.yul\":6932:7010   */\n      tag_169\n      jump\t// in\n    tag_211:\n        /* \"#utility.yul\":6924:7010   */\n      swap1\n      pop\n        /* \"#utility.yul\":7020:7092   */\n      tag_212\n        /* \"#utility.yul\":7088:7090   */\n      0x20\n        /* \"#utility.yul\":7077:7086   */\n      dup4\n        /* \"#utility.yul\":7073:7091   */\n      add\n        /* \"#utility.yul\":7064:7070   */\n      dup8\n        /* \"#utility.yul\":7020:7092   */\n      tag_207\n      jump\t// in\n    tag_212:\n        /* \"#utility.yul\":7139:7148   */\n      dup2\n        /* \"#utility.yul\":7133:7137   */\n      dup2\n        /* \"#utility.yul\":7129:7149   */\n      sub\n        /* \"#utility.yul\":7124:7126   */\n      0x40\n        /* \"#utility.yul\":7113:7122   */\n      dup4\n        /* \"#utility.yul\":7109:7127   */\n      add\n        /* \"#utility.yul\":7102:7150   */\n      mstore\n        /* \"#utility.yul\":7167:7245   */\n      tag_213\n        /* \"#utility.yul\":7240:7244   */\n      dup2\n        /* \"#utility.yul\":7231:7237   */\n      dup7\n        /* \"#utility.yul\":7167:7245   */\n      tag_169\n      jump\t// in\n    tag_213:\n        /* \"#utility.yul\":7159:7245   */\n      swap1\n      pop\n        /* \"#utility.yul\":7255:7327   */\n      tag_214\n        /* \"#utility.yul\":7323:7325   */\n      0x60\n        /* \"#utility.yul\":7312:7321   */\n      dup4\n        /* \"#utility.yul\":7308:7326   */\n      add\n        /* \"#utility.yul\":7299:7305   */\n      dup6\n        /* \"#utility.yul\":7255:7327   */\n      tag_207\n      jump\t// in\n    tag_214:\n        /* \"#utility.yul\":7337:7410   */\n      tag_215\n        /* \"#utility.yul\":7405:7408   */\n      0x80\n        /* \"#utility.yul\":7394:7403   */\n      dup4\n        /* \"#utility.yul\":7390:7409   */\n      add\n        /* \"#utility.yul\":7381:7387   */\n      dup5\n        /* \"#utility.yul\":7337:7410   */\n      tag_207\n      jump\t// in\n    tag_215:\n        /* \"#utility.yul\":6571:7417   */\n      swap7\n      swap6\n      pop\n      pop\n      pop\n      pop\n      pop\n      pop\n      jump\t// out\n        /* \"#utility.yul\":7423:7842   */\n    tag_47:\n        /* \"#utility.yul\":7589:7593   */\n      0x00\n        /* \"#utility.yul\":7627:7629   */\n      0x20\n        /* \"#utility.yul\":7616:7625   */\n      dup3\n        /* \"#utility.yul\":7612:7630   */\n      add\n        /* \"#utility.yul\":7604:7630   */\n      swap1\n      pop\n        /* \"#utility.yul\":7676:7685   */\n      dup2\n        /* \"#utility.yul\":7670:7674   */\n      dup2\n        /* \"#utility.yul\":7666:7686   */\n      sub\n        /* \"#utility.yul\":7662:7663   */\n      0x00\n        /* \"#utility.yul\":7651:7660   */\n      dup4\n        /* \"#utility.yul\":7647:7664   */\n      add\n        /* \"#utility.yul\":7640:7687   */\n      mstore\n        /* \"#utility.yul\":7704:7835   */\n      tag_217\n        /* \"#utility.yul\":7830:7834   */\n      dup2\n        /* \"#utility.yul\":7704:7835   */\n      tag_176\n      jump\t// in\n    tag_217:\n        /* \"#utility.yul\":7696:7835   */\n      swap1\n      pop\n        /* \"#utility.yul\":7423:7842   */\n      swap2\n      swap1\n      pop\n      jump\t// out\n        /* \"#utility.yul\":7848:8267   */\n    tag_63:\n        /* \"#utility.yul\":8014:8018   */\n      0x00\n        /* \"#utility.yul\":8052:8054   */\n      0x20\n        /* \"#utility.yul\":8041:8050   */\n      dup3\n        /* \"#utility.yul\":8037:8055   */\n      add\n        /* \"#utility.yul\":8029:8055   */\n      swap1\n      pop\n        /* \"#utility.yul\":8101:8110   */\n      dup2\n        /* \"#utility.yul\":8095:8099   */\n      dup2\n        /* \"#utility.yul\":8091:8111   */\n      sub\n        /* \"#utility.yul\":8087:8088   */\n      0x00\n        /* \"#utility.yul\":8076:8085   */\n      dup4\n        /* \"#utility.yul\":8072:8089   */\n      add\n        /* \"#utility.yul\":8065:8112   */\n      mstore\n        /* \"#utility.yul\":8129:8260   */\n      tag_219\n        /* \"#utility.yul\":8255:8259   */\n      dup2\n        /* \"#utility.yul\":8129:8260   */\n      tag_181\n      jump\t// in\n    tag_219:\n        /* \"#utility.yul\":8121:8260   */\n      swap1\n      pop\n        /* \"#utility.yul\":7848:8267   */\n      swap2\n      swap1\n      pop\n      jump\t// out\n        /* \"#utility.yul\":8273:8692   */\n    tag_44:\n        /* \"#utility.yul\":8439:8443   */\n      0x00\n        /* \"#utility.yul\":8477:8479   */\n      0x20\n        /* \"#utility.yul\":8466:8475   */\n      dup3\n        /* \"#utility.yul\":8462:8480   */\n      add\n        /* \"#utility.yul\":8454:8480   */\n      swap1\n      pop\n        /* \"#utility.yul\":8526:8535   */\n      dup2\n        /* \"#utility.yul\":8520:8524   */\n      dup2\n        /* \"#utility.yul\":8516:8536   */\n      sub\n        /* \"#utility.yul\":8512:8513   */\n      0x00\n        /* \"#utility.yul\":8501:8510   */\n      dup4\n        /* \"#utility.yul\":8497:8514   */\n      add\n        /* \"#utility.yul\":8490:8537   */\n      mstore\n        /* \"#utility.yul\":8554:8685   */\n      tag_221\n        /* \"#utility.yul\":8680:8684   */\n      dup2\n        /* \"#utility.yul\":8554:8685   */\n      tag_186\n      jump\t// in\n    tag_221:\n        /* \"#utility.yul\":8546:8685   */\n      swap1\n      pop\n        /* \"#utility.yul\":8273:8692   */\n      swap2\n      swap1\n      pop\n      jump\t// out\n        /* \"#utility.yul\":8698:9117   */\n    tag_40:\n        /* \"#utility.yul\":8864:8868   */\n      0x00\n        /* \"#utility.yul\":8902:8904   */\n      0x20\n        /* \"#utility.yul\":8891:8900   */\n      dup3\n        /* \"#utility.yul\":8887:8905   */\n      add\n        /* \"#utility.yul\":8879:8905   */\n      swap1\n      pop\n        /* \"#utility.yul\":8951:8960   */\n      dup2\n        /* \"#utility.yul\":8945:8949   */\n      dup2\n        /* \"#utility.yul\":8941:8961   */\n      sub\n        /* \"#utility.yul\":8937:8938   */\n      0x00\n        /* \"#utility.yul\":8926:8935   */\n      dup4\n        /* \"#utility.yul\":8922:8939   */\n      add\n        /* \"#utility.yul\":8915:8962   */\n      mstore\n        /* \"#utility.yul\":8979:9110   */\n      tag_223\n        /* \"#utility.yul\":9105:9109   */\n      dup2\n        /* \"#utility.yul\":8979:9110   */\n      tag_191\n      jump\t// in\n    tag_223:\n        /* \"#utility.yul\":8971:9110   */\n      swap1\n      pop\n        /* \"#utility.yul\":8698:9117   */\n      swap2\n      swap1\n      pop\n      jump\t// out\n        /* \"#utility.yul\":9123:9484   */\n    tag_35:\n        /* \"#utility.yul\":9260:9264   */\n      0x00\n        /* \"#utility.yul\":9298:9300   */\n      0x20\n        /* \"#utility.yul\":9287:9296   */\n      dup3\n        /* \"#utility.yul\":9283:9301   */\n      add\n        /* \"#utility.yul\":9275:9301   */\n      swap1\n      pop\n        /* \"#utility.yul\":9347:9356   */\n      dup2\n        /* \"#utility.yul\":9341:9345   */\n      dup2\n        /* \"#utility.yul\":9337:9357   */\n      sub\n        /* \"#utility.yul\":9333:9334   */\n      0x00\n        /* \"#utility.yul\":9322:9331   */\n      dup4\n        /* \"#utility.yul\":9318:9335   */\n      add\n        /* \"#utility.yul\":9311:9358   */\n      mstore\n        /* \"#utility.yul\":9375:9477   */\n      tag_225\n        /* \"#utility.yul\":9472:9476   */\n      dup2\n        /* \"#utility.yul\":9463:9469   */\n      dup5\n        /* \"#utility.yul\":9375:9477   */\n      tag_196\n      jump\t// in\n    tag_225:\n        /* \"#utility.yul\":9367:9477   */\n      swap1\n      pop\n        /* \"#utility.yul\":9123:9484   */\n      swap3\n      swap2\n      pop\n      pop\n      jump\t// out\n        /* \"#utility.yul\":9490:9712   */\n    tag_16:\n        /* \"#utility.yul\":9583:9587   */\n      0x00\n        /* \"#utility.yul\":9621:9623   */\n      0x20\n        /* \"#utility.yul\":9610:9619   */\n      dup3\n        /* \"#utility.yul\":9606:9624   */\n      add\n        /* \"#utility.yul\":9598:9624   */\n      swap1\n      pop\n        /* \"#utility.yul\":9634:9705   */\n      tag_227\n        /* \"#utility.yul\":9702:9703   */\n      0x00\n        /* \"#utility.yul\":9691:9700   */\n      dup4\n        /* \"#utility.yul\":9687:9704   */\n      add\n        /* \"#utility.yul\":9678:9684   */\n      dup5\n        /* \"#utility.yul\":9634:9705   */\n      tag_207\n      jump\t// in\n    tag_227:\n        /* \"#utility.yul\":9490:9712   */\n      swap3\n      swap2\n      pop\n      pop\n      jump\t// out\n        /* \"#utility.yul\":9718:10050   */\n    tag_31:\n        /* \"#utility.yul\":9839:9843   */\n      0x00\n        /* \"#utility.yul\":9877:9879   */\n      0x40\n        /* \"#utility.yul\":9866:9875   */\n      dup3\n        /* \"#utility.yul\":9862:9880   */\n      add\n        /* \"#utility.yul\":9854:9880   */\n      swap1\n      pop\n        /* \"#utility.yul\":9890:9961   */\n      tag_229\n        /* \"#utility.yul\":9958:9959   */\n      0x00\n        /* \"#utility.yul\":9947:9956   */\n      dup4\n        /* \"#utility.yul\":9943:9960   */\n      add\n        /* \"#utility.yul\":9934:9940   */\n      dup6\n        /* \"#utility.yul\":9890:9961   */\n      tag_207\n      jump\t// in\n    tag_229:\n        /* \"#utility.yul\":9971:10043   */\n      tag_230\n        /* \"#utility.yul\":10039:10041   */\n      0x20\n        /* \"#utility.yul\":10028:10037   */\n      dup4\n        /* \"#utility.yul\":10024:10042   */\n      add\n        /* \"#utility.yul\":10015:10021   */\n      dup5\n        /* \"#utility.yul\":9971:10043   */\n      tag_207\n      jump\t// in\n    tag_230:\n        /* \"#utility.yul\":9718:10050   */\n      swap4\n      swap3\n      pop\n      pop\n      pop\n      jump\t// out\n        /* \"#utility.yul\":10056:10185   */\n    tag_118:\n        /* \"#utility.yul\":10090:10096   */\n      0x00\n        /* \"#utility.yul\":10117:10137   */\n      tag_232\n      tag_233\n      jump\t// in\n    tag_232:\n        /* \"#utility.yul\":10107:10137   */\n      swap1\n      pop\n        /* \"#utility.yul\":10146:10179   */\n      tag_234\n        /* \"#utility.yul\":10174:10178   */\n      dup3\n        /* \"#utility.yul\":10166:10172   */\n      dup3\n        /* \"#utility.yul\":10146:10179   */\n      tag_235\n      jump\t// in\n    tag_234:\n        /* \"#utility.yul\":10056:10185   */\n      swap2\n      swap1\n      pop\n      jump\t// out\n        /* \"#utility.yul\":10191:10266   */\n    tag_233:\n        /* \"#utility.yul\":10224:10230   */\n      0x00\n        /* \"#utility.yul\":10257:10259   */\n      0x40\n        /* \"#utility.yul\":10251:10260   */\n      mload\n        /* \"#utility.yul\":10241:10260   */\n      swap1\n      pop\n        /* \"#utility.yul\":10191:10266   */\n      swap1\n      jump\t// out\n        /* \"#utility.yul\":10272:10580   */\n    tag_117:\n        /* \"#utility.yul\":10334:10338   */\n      0x00\n        /* \"#utility.yul\":10424:10442   */\n      0xffffffffffffffff\n        /* \"#utility.yul\":10416:10422   */\n      dup3\n        /* \"#utility.yul\":10413:10443   */\n      gt\n        /* \"#utility.yul\":10410:10466   */\n      iszero\n      tag_238\n      jumpi\n        /* \"#utility.yul\":10446:10464   */\n      tag_239\n      tag_240\n      jump\t// in\n    tag_239:\n        /* \"#utility.yul\":10410:10466   */\n    tag_238:\n        /* \"#utility.yul\":10484:10513   */\n      tag_241\n        /* \"#utility.yul\":10506:10512   */\n      dup3\n        /* \"#utility.yul\":10484:10513   */\n      tag_168\n      jump\t// in\n    tag_241:\n        /* \"#utility.yul\":10476:10513   */\n      swap1\n      pop\n        /* \"#utility.yul\":10568:10572   */\n      0x20\n        /* \"#utility.yul\":10562:10566   */\n      dup2\n        /* \"#utility.yul\":10558:10573   */\n      add\n        /* \"#utility.yul\":10550:10573   */\n      swap1\n      pop\n        /* \"#utility.yul\":10272:10580   */\n      swap2\n      swap1\n      pop\n      jump\t// out\n        /* \"#utility.yul\":10586:10685   */\n    tag_162:\n        /* \"#utility.yul\":10638:10644   */\n      0x00\n        /* \"#utility.yul\":10672:10677   */\n      dup2\n        /* \"#utility.yul\":10666:10678   */\n      mload\n        /* \"#utility.yul\":10656:10678   */\n      swap1\n      pop\n        /* \"#utility.yul\":10586:10685   */\n      swap2\n      swap1\n      pop\n      jump\t// out\n        /* \"#utility.yul\":10691:10850   */\n    tag_164:\n        /* \"#utility.yul\":10765:10776   */\n      0x00\n        /* \"#utility.yul\":10799:10805   */\n      dup3\n        /* \"#utility.yul\":10794:10797   */\n      dup3\n        /* \"#utility.yul\":10787:10806   */\n      mstore\n        /* \"#utility.yul\":10839:10843   */\n      0x20\n        /* \"#utility.yul\":10834:10837   */\n      dup3\n        /* \"#utility.yul\":10830:10844   */\n      add\n        /* \"#utility.yul\":10815:10844   */\n      swap1\n      pop\n        /* \"#utility.yul\":10691:10850   */\n      swap3\n      swap2\n      pop\n      pop\n      jump\t// out\n        /* \"#utility.yul\":10856:11025   */\n    tag_173:\n        /* \"#utility.yul\":10940:10951   */\n      0x00\n        /* \"#utility.yul\":10974:10980   */\n      dup3\n        /* \"#utility.yul\":10969:10972   */\n      dup3\n        /* \"#utility.yul\":10962:10981   */\n      mstore\n        /* \"#utility.yul\":11014:11018   */\n      0x20\n        /* \"#utility.yul\":11009:11012   */\n      dup3\n        /* \"#utility.yul\":11005:11019   */\n      add\n        /* \"#utility.yul\":10990:11019   */\n      swap1\n      pop\n        /* \"#utility.yul\":10856:11025   */\n      swap3\n      swap2\n      pop\n      pop\n      jump\t// out\n        /* \"#utility.yul\":11031:11336   */\n    tag_69:\n        /* \"#utility.yul\":11071:11074   */\n      0x00\n        /* \"#utility.yul\":11090:11110   */\n      tag_246\n        /* \"#utility.yul\":11108:11109   */\n      dup3\n        /* \"#utility.yul\":11090:11110   */\n      tag_206\n      jump\t// in\n    tag_246:\n        /* \"#utility.yul\":11085:11110   */\n      swap2\n      pop\n        /* \"#utility.yul\":11124:11144   */\n      tag_247\n        /* \"#utility.yul\":11142:11143   */\n      dup4\n        /* \"#utility.yul\":11124:11144   */\n      tag_206\n      jump\t// in\n    tag_247:\n        /* \"#utility.yul\":11119:11144   */\n      swap3\n      pop\n        /* \"#utility.yul\":11278:11279   */\n      dup3\n        /* \"#utility.yul\":11210:11276   */\n      0xffffffffffffffffffffffffffffffffffffffffffffffffffffffffffffffff\n        /* \"#utility.yul\":11206:11280   */\n      sub\n        /* \"#utility.yul\":11203:11204   */\n      dup3\n        /* \"#utility.yul\":11200:11281   */\n      gt\n        /* \"#utility.yul\":11197:11304   */\n      iszero\n      tag_248\n      jumpi\n        /* \"#utility.yul\":11284:11302   */\n      tag_249\n      tag_250\n      jump\t// in\n    tag_249:\n        /* \"#utility.yul\":11197:11304   */\n    tag_248:\n        /* \"#utility.yul\":11328:11329   */\n      dup3\n        /* \"#utility.yul\":11325:11326   */\n      dup3\n        /* \"#utility.yul\":11321:11330   */\n      add\n        /* \"#utility.yul\":11314:11330   */\n      swap1\n      pop\n        /* \"#utility.yul\":11031:11336   */\n      swap3\n      swap2\n      pop\n      pop\n      jump\t// out\n        /* \"#utility.yul\":11342:11438   */\n    tag_251:\n        /* \"#utility.yul\":11379:11386   */\n      0x00\n        /* \"#utility.yul\":11408:11432   */\n      tag_253\n        /* \"#utility.yul\":11426:11431   */\n      dup3\n        /* \"#utility.yul\":11408:11432   */\n      tag_254\n      jump\t// in\n    tag_253:\n        /* \"#utility.yul\":11397:11432   */\n      swap1\n      pop\n        /* \"#utility.yul\":11342:11438   */\n      swap2\n      swap1\n      pop\n      jump\t// out\n        /* \"#utility.yul\":11444:11570   */\n    tag_254:\n        /* \"#utility.yul\":11481:11488   */\n      0x00\n        /* \"#utility.yul\":11521:11563   */\n      0xffffffffffffffffffffffffffffffffffffffff\n        /* \"#utility.yul\":11514:11519   */\n      dup3\n        /* \"#utility.yul\":11510:11564   */\n      and\n        /* \"#utility.yul\":11499:11564   */\n      swap1\n      pop\n        /* \"#utility.yul\":11444:11570   */\n      swap2\n      swap1\n      pop\n      jump\t// out\n        /* \"#utility.yul\":11576:11653   */\n    tag_206:\n        /* \"#utility.yul\":11613:11620   */\n      0x00\n        /* \"#utility.yul\":11642:11647   */\n      dup2\n        /* \"#utility.yul\":11631:11647   */\n      swap1\n      pop\n        /* \"#utility.yul\":11576:11653   */\n      swap2\n      swap1\n      pop\n      jump\t// out\n        /* \"#utility.yul\":11659:11813   */\n    tag_123:\n        /* \"#utility.yul\":11743:11749   */\n      dup3\n        /* \"#utility.yul\":11738:11741   */\n      dup2\n        /* \"#utility.yul\":11733:11736   */\n      dup4\n        /* \"#utility.yul\":11720:11750   */\n      calldatacopy\n        /* \"#utility.yul\":11805:11806   */\n      0x00\n        /* \"#utility.yul\":11796:11802   */\n      dup4\n        /* \"#utility.yul\":11791:11794   */\n      dup4\n        /* \"#utility.yul\":11787:11803   */\n      add\n        /* \"#utility.yul\":11780:11807   */\n      mstore\n        /* \"#utility.yul\":11659:11813   */\n      pop\n      pop\n      pop\n      jump\t// out\n        /* \"#utility.yul\":11819:12126   */\n    tag_166:\n        /* \"#utility.yul\":11887:11888   */\n      0x00\n        /* \"#utility.yul\":11897:12010   */\n    tag_259:\n        /* \"#utility.yul\":11911:11917   */\n      dup4\n        /* \"#utility.yul\":11908:11909   */\n      dup2\n        /* \"#utility.yul\":11905:11918   */\n      lt\n        /* \"#utility.yul\":11897:12010   */\n      iszero\n      tag_261\n      jumpi\n        /* \"#utility.yul\":11996:11997   */\n      dup1\n        /* \"#utility.yul\":11991:11994   */\n      dup3\n        /* \"#utility.yul\":11987:11998   */\n      add\n        /* \"#utility.yul\":11981:11999   */\n      mload\n        /* \"#utility.yul\":11977:11978   */\n      dup2\n        /* \"#utility.yul\":11972:11975   */\n      dup5\n        /* \"#utility.yul\":11968:11979   */\n      add\n        /* \"#utility.yul\":11961:12000   */\n      mstore\n        /* \"#utility.yul\":11933:11935   */\n      0x20\n        /* \"#utility.yul\":11930:11931   */\n      dup2\n        /* \"#utility.yul\":11926:11936   */\n      add\n        /* \"#utility.yul\":11921:11936   */\n      swap1\n      pop\n        /* \"#utility.yul\":11897:12010   */\n      jump(tag_259)\n    tag_261:\n        /* \"#utility.yul\":12028:12034   */\n      dup4\n        /* \"#utility.yul\":12025:12026   */\n      dup2\n        /* \"#utility.yul\":12022:12035   */\n      gt\n        /* \"#utility.yul\":12019:12120   */\n      iszero\n      tag_262\n      jumpi\n        /* \"#utility.yul\":12108:12109   */\n      0x00\n        /* \"#utility.yul\":12099:12105   */\n      dup5\n        /* \"#utility.yul\":12094:12097   */\n      dup5\n        /* \"#utility.yul\":12090:12106   */\n      add\n        /* \"#utility.yul\":12083:12110   */\n      mstore\n        /* \"#utility.yul\":12019:12120   */\n    tag_262:\n        /* \"#utility.yul\":11868:12126   */\n      pop\n        /* \"#utility.yul\":11819:12126   */\n      pop\n      pop\n      pop\n      jump\t// out\n        /* \"#utility.yul\":12132:12452   */\n    tag_77:\n        /* \"#utility.yul\":12176:12182   */\n      0x00\n        /* \"#utility.yul\":12213:12214   */\n      0x02\n        /* \"#utility.yul\":12207:12211   */\n      dup3\n        /* \"#utility.yul\":12203:12215   */\n      div\n        /* \"#utility.yul\":12193:12215   */\n      swap1\n      pop\n        /* \"#utility.yul\":12260:12261   */\n      0x01\n        /* \"#utility.yul\":12254:12258   */\n      dup3\n        /* \"#utility.yul\":12250:12262   */\n      and\n        /* \"#utility.yul\":12281:12299   */\n      dup1\n        /* \"#utility.yul\":12271:12352   */\n      tag_264\n      jumpi\n        /* \"#utility.yul\":12337:12341   */\n      0x7f\n        /* \"#utility.yul\":12329:12335   */\n      dup3\n        /* \"#utility.yul\":12325:12342   */\n      and\n        /* \"#utility.yul\":12315:12342   */\n      swap2\n      pop\n        /* \"#utility.yul\":12271:12352   */\n    tag_264:\n        /* \"#utility.yul\":12399:12401   */\n      0x20\n        /* \"#utility.yul\":12391:12397   */\n      dup3\n        /* \"#utility.yul\":12388:12402   */\n      lt\n        /* \"#utility.yul\":12368:12386   */\n      dup2\n        /* \"#utility.yul\":12365:12403   */\n      eq\n        /* \"#utility.yul\":12362:12446   */\n      iszero\n      tag_265\n      jumpi\n        /* \"#utility.yul\":12418:12436   */\n      tag_266\n      tag_267\n      jump\t// in\n    tag_266:\n        /* \"#utility.yul\":12362:12446   */\n    tag_265:\n        /* \"#utility.yul\":12183:12452   */\n      pop\n        /* \"#utility.yul\":12132:12452   */\n      swap2\n      swap1\n      pop\n      jump\t// out\n        /* \"#utility.yul\":12458:12739   */\n    tag_235:\n        /* \"#utility.yul\":12541:12568   */\n      tag_269\n        /* \"#utility.yul\":12563:12567   */\n      dup3\n        /* \"#utility.yul\":12541:12568   */\n      tag_168\n      jump\t// in\n    tag_269:\n        /* \"#utility.yul\":12533:12539   */\n      dup2\n        /* \"#utility.yul\":12529:12569   */\n      add\n        /* \"#utility.yul\":12671:12677   */\n      dup2\n        /* \"#utility.yul\":12659:12669   */\n      dup2\n        /* \"#utility.yul\":12656:12678   */\n      lt\n        /* \"#utility.yul\":12635:12653   */\n      0xffffffffffffffff\n        /* \"#utility.yul\":12623:12633   */\n      dup3\n        /* \"#utility.yul\":12620:12654   */\n      gt\n        /* \"#utility.yul\":12617:12679   */\n      or\n        /* \"#utility.yul\":12614:12702   */\n      iszero\n      tag_270\n      jumpi\n        /* \"#utility.yul\":12682:12700   */\n      tag_271\n      tag_240\n      jump\t// in\n    tag_271:\n        /* \"#utility.yul\":12614:12702   */\n    tag_270:\n        /* \"#utility.yul\":12722:12732   */\n      dup1\n        /* \"#utility.yul\":12718:12720   */\n      0x40\n        /* \"#utility.yul\":12711:12733   */\n      mstore\n        /* \"#utility.yul\":12501:12739   */\n      pop\n        /* \"#utility.yul\":12458:12739   */\n      pop\n      pop\n      jump\t// out\n        /* \"#utility.yul\":12745:12978   */\n    tag_54:\n        /* \"#utility.yul\":12784:12787   */\n      0x00\n        /* \"#utility.yul\":12807:12831   */\n      tag_273\n        /* \"#utility.yul\":12825:12830   */\n      dup3\n        /* \"#utility.yul\":12807:12831   */\n      tag_206\n      jump\t// in\n    tag_273:\n        /* \"#utility.yul\":12798:12831   */\n      swap2\n      pop\n        /* \"#utility.yul\":12853:12919   */\n      0xffffffffffffffffffffffffffffffffffffffffffffffffffffffffffffffff\n        /* \"#utility.yul\":12846:12851   */\n      dup3\n        /* \"#utility.yul\":12843:12920   */\n      eq\n        /* \"#utility.yul\":12840:12943   */\n      iszero\n      tag_274\n      jumpi\n        /* \"#utility.yul\":12923:12941   */\n      tag_275\n      tag_250\n      jump\t// in\n    tag_275:\n        /* \"#utility.yul\":12840:12943   */\n    tag_274:\n        /* \"#utility.yul\":12970:12971   */\n      0x01\n        /* \"#utility.yul\":12963:12968   */\n      dup3\n        /* \"#utility.yul\":12959:12972   */\n      add\n        /* \"#utility.yul\":12952:12972   */\n      swap1\n      pop\n        /* \"#utility.yul\":12745:12978   */\n      swap2\n      swap1\n      pop\n      jump\t// out\n        /* \"#utility.yul\":12984:13164   */\n    tag_250:\n        /* \"#utility.yul\":13032:13109   */\n      0x4e487b7100000000000000000000000000000000000000000000000000000000\n        /* \"#utility.yul\":13029:13030   */\n      0x00\n        /* \"#utility.yul\":13022:13110   */\n      mstore\n        /* \"#utility.yul\":13129:13133   */\n      0x11\n        /* \"#utility.yul\":13126:13127   */\n      0x04\n        /* \"#utility.yul\":13119:13134   */\n      mstore\n        /* \"#utility.yul\":13153:13157   */\n      0x24\n        /* \"#utility.yul\":13150:13151   */\n      0x00\n        /* \"#utility.yul\":13143:13158   */\n      revert\n        /* \"#utility.yul\":13170:13350   */\n    tag_267:\n        /* \"#utility.yul\":13218:13295   */\n      0x4e487b7100000000000000000000000000000000000000000000000000000000\n        /* \"#utility.yul\":13215:13216   */\n      0x00\n        /* \"#utility.yul\":13208:13296   */\n      mstore\n        /* \"#utility.yul\":13315:13319   */\n      0x22\n        /* \"#utility.yul\":13312:13313   */\n      0x04\n        /* \"#utility.yul\":13305:13320   */\n      mstore\n        /* \"#utility.yul\":13339:13343   */\n      0x24\n        /* \"#utility.yul\":13336:13337   */\n      0x00\n        /* \"#utility.yul\":13329:13344   */\n      revert\n        /* \"#utility.yul\":13356:13536   */\n    tag_51:\n        /* \"#utility.yul\":13404:13481   */\n      0x4e487b7100000000000000000000000000000000000000000000000000000000\n        /* \"#utility.yul\":13401:13402   */\n      0x00\n        /* \"#utility.yul\":13394:13482   */\n      mstore\n        /* \"#utility.yul\":13501:13505   */\n      0x32\n        /* \"#utility.yul\":13498:13499   */\n      0x04\n        /* \"#utility.yul\":13491:13506   */\n      mstore\n        /* \"#utility.yul\":13525:13529   */\n      0x24\n        /* \"#utility.yul\":13522:13523   */\n      0x00\n        /* \"#utility.yul\":13515:13530   */\n      revert\n        /* \"#utility.yul\":13542:13722   */\n    tag_240:\n        /* \"#utility.yul\":13590:13667   */\n      0x4e487b7100000000000000000000000000000000000000000000000000000000\n        /* \"#utility.yul\":13587:13588   */\n      0x00\n        /* \"#utility.yul\":13580:13668   */\n      mstore\n        /* \"#utility.yul\":13687:13691   */\n      0x41\n        /* \"#utility.yul\":13684:13685   */\n      0x04\n        /* \"#utility.yul\":13677:13692   */\n      mstore\n        /* \"#utility.yul\":13711:13715   */\n      0x24\n        /* \"#utility.yul\":13708:13709   */\n      0x00\n        /* \"#utility.yul\":13701:13716   */\n      revert\n        /* \"#utility.yul\":13728:13845   */\n    tag_132:\n        /* \"#utility.yul\":13837:13838   */\n      0x00\n        /* \"#utility.yul\":13834:13835   */\n      dup1\n        /* \"#utility.yul\":13827:13839   */\n      revert\n        /* \"#utility.yul\":13851:13968   */\n    tag_121:\n        /* \"#utility.yul\":13960:13961   */\n      0x00\n        /* \"#utility.yul\":13957:13958   */\n      dup1\n        /* \"#utility.yul\":13950:13962   */\n      revert\n        /* \"#utility.yul\":13974:14091   */\n    tag_144:\n        /* \"#utility.yul\":14083:14084   */\n      0x00\n        /* \"#utility.yul\":14080:14081   */\n      dup1\n        /* \"#utility.yul\":14073:14085   */\n      revert\n        /* \"#utility.yul\":14097:14214   */\n    tag_141:\n        /* \"#utility.yul\":14206:14207   */\n      0x00\n        /* \"#utility.yul\":14203:14204   */\n      dup1\n        /* \"#utility.yul\":14196:14208   */\n      revert\n        /* \"#utility.yul\":14220:14322   */\n    tag_168:\n        /* \"#utility.yul\":14261:14267   */\n      0x00\n        /* \"#utility.yul\":14312:14314   */\n      0x1f\n        /* \"#utility.yul\":14308:14315   */\n      not\n        /* \"#utility.yul\":14303:14305   */\n      0x1f\n        /* \"#utility.yul\":14296:14301   */\n      dup4\n        /* \"#utility.yul\":14292:14306   */\n      add\n        /* \"#utility.yul\":14288:14316   */\n      and\n        /* \"#utility.yul\":14278:14316   */\n      swap1\n      pop\n        /* \"#utility.yul\":14220:14322   */\n      swap2\n      swap1\n      pop\n      jump\t// out\n        /* \"#utility.yul\":14328:14510   */\n    tag_180:\n        /* \"#utility.yul\":14468:14502   */\n      0x596f7520616c726561647920766f746564206f6e207468697320766f74696e67\n        /* \"#utility.yul\":14464:14465   */\n      0x00\n        /* \"#utility.yul\":14456:14462   */\n      dup3\n        /* \"#utility.yul\":14452:14466   */\n      add\n        /* \"#utility.yul\":14445:14503   */\n      mstore\n        /* \"#utility.yul\":14328:14510   */\n      pop\n      jump\t// out\n        /* \"#utility.yul\":14516:14680   */\n    tag_185:\n        /* \"#utility.yul\":14656:14672   */\n      0x496e76616c69642073656e646572000000000000000000000000000000000000\n        /* \"#utility.yul\":14652:14653   */\n      0x00\n        /* \"#utility.yul\":14644:14650   */\n      dup3\n        /* \"#utility.yul\":14640:14654   */\n      add\n        /* \"#utility.yul\":14633:14673   */\n      mstore\n        /* \"#utility.yul\":14516:14680   */\n      pop\n      jump\t// out\n        /* \"#utility.yul\":14686:14850   */\n    tag_190:\n        /* \"#utility.yul\":14826:14842   */\n      0x4e6f206f70656e20766f74696e67000000000000000000000000000000000000\n        /* \"#utility.yul\":14822:14823   */\n      0x00\n        /* \"#utility.yul\":14814:14820   */\n      dup3\n        /* \"#utility.yul\":14810:14824   */\n      add\n        /* \"#utility.yul\":14803:14843   */\n      mstore\n        /* \"#utility.yul\":14686:14850   */\n      pop\n      jump\t// out\n        /* \"#utility.yul\":14856:15020   */\n    tag_195:\n        /* \"#utility.yul\":14996:15012   */\n      0x496e76616c69642063686f696365000000000000000000000000000000000000\n        /* \"#utility.yul\":14992:14993   */\n      0x00\n        /* \"#utility.yul\":14984:14990   */\n      dup3\n        /* \"#utility.yul\":14980:14994   */\n      add\n        /* \"#utility.yul\":14973:15013   */\n      mstore\n        /* \"#utility.yul\":14856:15020   */\n      pop\n      jump\t// out\n        /* \"#utility.yul\":15026:15148   */\n    tag_127:\n        /* \"#utility.yul\":15099:15123   */\n      tag_290\n        /* \"#utility.yul\":15117:15122   */\n      dup2\n        /* \"#utility.yul\":15099:15123   */\n      tag_251\n      jump\t// in\n    tag_290:\n        /* \"#utility.yul\":15092:15097   */\n      dup2\n        /* \"#utility.yul\":15089:15124   */\n      eq\n        /* \"#utility.yul\":15079:15142   */\n      tag_291\n      jumpi\n        /* \"#utility.yul\":15138:15139   */\n      0x00\n        /* \"#utility.yul\":15135:15136   */\n      dup1\n        /* \"#utility.yul\":15128:15140   */\n      revert\n        /* \"#utility.yul\":15079:15142   */\n    tag_291:\n        /* \"#utility.yul\":15026:15148   */\n      pop\n      jump\t// out\n        /* \"#utility.yul\":15154:15276   */\n    tag_137:\n        /* \"#utility.yul\":15227:15251   */\n      tag_293\n        /* \"#utility.yul\":15245:15250   */\n      dup2\n        /* \"#utility.yul\":15227:15251   */\n      tag_206\n      jump\t// in\n    tag_293:\n        /* \"#utility.yul\":15220:15225   */\n      dup2\n        /* \"#utility.yul\":15217:15252   */\n      eq\n        /* \"#utility.yul\":15207:15270   */\n      tag_294\n      jumpi\n        /* \"#utility.yul\":15266:15267   */\n      0x00\n        /* \"#utility.yul\":15263:15264   */\n      dup1\n        /* \"#utility.yul\":15256:15268   */\n      revert\n        /* \"#utility.yul\":15207:15270   */\n    tag_294:\n        /* \"#utility.yul\":15154:15276   */\n      pop\n      jump\t// out\n\n    auxdata: 0xa26469706673582212204dc0e67a49baab6a069da87827c1d91059942463d4da4cf14b9a42b2151b33be64736f6c63430008070033\n}\n",
				"bytecode": {
					"linkReferences": {},
					"object": "6080604052600060015534801561001557600080fd5b50336000806101000a81548173ffffffffffffffffffffffffffffffffffffffff021916908373ffffffffffffffffffffffffffffffffffffffff16021790555061115d806100656000396000f3fe608060405234801561001057600080fd5b50600436106100625760003560e01c80630383badc146100675780631c7bec9d1461008357806355f9b1ec146100a1578063a598d03c146100bd578063d23254b4146100f1578063f1156cdf14610122575b600080fd5b610081600480360381019061007c9190610a24565b610140565b005b61008b6103b3565b6040516100989190610d2d565b60405180910390f35b6100bb60048036038101906100b69190610999565b6103b9565b005b6100d760048036038101906100d29190610a24565b610528565b6040516100e8959493929190610c2a565b60405180910390f35b61010b60048036038101906101069190610a51565b61067e565b604051610119929190610d48565b60405180910390f35b61012a6106af565b6040516101379190610d0b565b60405180910390f35b600181148061014f5750600281145b61018e576040517f08c379a000000000000000000000000000000000000000000000000000000000815260040161018590610ceb565b60405180910390fd5b426101976106af565b60800151116101db576040517f08c379a00000000000000000000000000000000000000000000000000000000081526004016101d290610ccb565b60405180910390fd5b600060036000600154815260200190815260200160002060003373ffffffffffffffffffffffffffffffffffffffff1673ffffffffffffffffffffffffffffffffffffffff1681526020019081526020016000206001015414610273576040517f08c379a000000000000000000000000000000000000000000000000000000000815260040161026a90610c8b565b60405180910390fd5b8060036000600154815260200190815260200160002060003373ffffffffffffffffffffffffffffffffffffffff1673ffffffffffffffffffffffffffffffffffffffff168152602001908152602001600020600001819055504260036000600154815260200190815260200160002060003373ffffffffffffffffffffffffffffffffffffffff1673ffffffffffffffffffffffffffffffffffffffff1681526020019081526020016000206001018190555060018114156103725760026001548154811061034657610345610fd2565b5b9060005260206000209060050201600101600081548092919061036890610f2b565b91905055506103b0565b60026001548154811061038857610387610fd2565b5b906000526020600020906005020160030160008154809291906103aa90610f2b565b91905055505b50565b60015481565b60008054906101000a900473ffffffffffffffffffffffffffffffffffffffff1673ffffffffffffffffffffffffffffffffffffffff163373ffffffffffffffffffffffffffffffffffffffff1614610447576040517f08c379a000000000000000000000000000000000000000000000000000000000815260040161043e90610cab565b60405180910390fd5b60006002805490501461046d576001600081548092919061046790610f2b565b91905055505b61047561082d565b83816000018190525082816040018190525042826104939190610df4565b816080018181525050600281908060018154018082558091505060019003906000526020600020906005020160009091909190915060008201518160000190805190602001906104e492919061085c565b5060208201518160010155604082015181600201908051906020019061050b92919061085c565b506060820151816003015560808201518160040155505050505050565b6002818154811061053857600080fd5b906000526020600020906005020160009150905080600001805461055b90610ec8565b80601f016020809104026020016040519081016040528092919081815260200182805461058790610ec8565b80156105d45780601f106105a9576101008083540402835291602001916105d4565b820191906000526020600020905b8154815290600101906020018083116105b757829003601f168201915b5050505050908060010154908060020180546105ef90610ec8565b80601f016020809104026020016040519081016040528092919081815260200182805461061b90610ec8565b80156106685780601f1061063d57610100808354040283529160200191610668565b820191906000526020600020905b81548152906001019060200180831161064b57829003601f168201915b5050505050908060030154908060040154905085565b6003602052816000526040600020602052806000526040600020600091509150508060000154908060010154905082565b6106b761082d565b6002600154815481106106cd576106cc610fd2565b5b90600052602060002090600502016040518060a00160405290816000820180546106f690610ec8565b80601f016020809104026020016040519081016040528092919081815260200182805461072290610ec8565b801561076f5780601f106107445761010080835404028352916020019161076f565b820191906000526020600020905b81548152906001019060200180831161075257829003601f168201915b505050505081526020016001820154815260200160028201805461079290610ec8565b80601f01602080910402602001604051908101604052809291908181526020018280546107be90610ec8565b801561080b5780601f106107e05761010080835404028352916020019161080b565b820191906000526020600020905b8154815290600101906020018083116107ee57829003601f168201915b5050505050815260200160038201548152602001600482015481525050905090565b6040518060a0016040528060608152602001600081526020016060815260200160008152602001600081525090565b82805461086890610ec8565b90600052602060002090601f01602090048101928261088a57600085556108d1565b82601f106108a357805160ff19168380011785556108d1565b828001600101855582156108d1579182015b828111156108d05782518255916020019190600101906108b5565b5b5090506108de91906108e2565b5090565b5b808211156108fb5760008160009055506001016108e3565b5090565b600061091261090d84610d96565b610d71565b90508281526020810184848401111561092e5761092d611035565b5b610939848285610e86565b509392505050565b600081359050610950816110f9565b92915050565b600082601f83011261096b5761096a611030565b5b813561097b8482602086016108ff565b91505092915050565b60008135905061099381611110565b92915050565b6000806000606084860312156109b2576109b161103f565b5b600084013567ffffffffffffffff8111156109d0576109cf61103a565b5b6109dc86828701610956565b935050602084013567ffffffffffffffff8111156109fd576109fc61103a565b5b610a0986828701610956565b9250506040610a1a86828701610984565b9150509250925092565b600060208284031215610a3a57610a3961103f565b5b6000610a4884828501610984565b91505092915050565b60008060408385031215610a6857610a6761103f565b5b6000610a7685828601610984565b9250506020610a8785828601610941565b9150509250929050565b6000610a9c82610dc7565b610aa68185610dd2565b9350610ab6818560208601610e95565b610abf81611044565b840191505092915050565b6000610ad582610dc7565b610adf8185610de3565b9350610aef818560208601610e95565b610af881611044565b840191505092915050565b6000610b10602083610de3565b9150610b1b82611055565b602082019050919050565b6000610b33600e83610de3565b9150610b3e8261107e565b602082019050919050565b6000610b56600e83610de3565b9150610b61826110a7565b602082019050919050565b6000610b79600e83610de3565b9150610b84826110d0565b602082019050919050565b600060a0830160008301518482036000860152610bac8282610a91565b9150506020830151610bc16020860182610c0c565b5060408301518482036040860152610bd98282610a91565b9150506060830151610bee6060860182610c0c565b506080830151610c016080860182610c0c565b508091505092915050565b610c1581610e7c565b82525050565b610c2481610e7c565b82525050565b600060a0820190508181036000830152610c448188610aca565b9050610c536020830187610c1b565b8181036040830152610c658186610aca565b9050610c746060830185610c1b565b610c816080830184610c1b565b9695505050505050565b60006020820190508181036000830152610ca481610b03565b9050919050565b60006020820190508181036000830152610cc481610b26565b9050919050565b60006020820190508181036000830152610ce481610b49565b9050919050565b60006020820190508181036000830152610d0481610b6c565b9050919050565b60006020820190508181036000830152610d258184610b8f565b905092915050565b6000602082019050610d426000830184610c1b565b92915050565b6000604082019050610d5d6000830185610c1b565b610d6a6020830184610c1b565b9392505050565b6000610d7b610d8c565b9050610d878282610efa565b919050565b6000604051905090565b600067ffffffffffffffff821115610db157610db0611001565b5b610dba82611044565b9050602081019050919050565b600081519050919050565b600082825260208201905092915050565b600082825260208201905092915050565b6000610dff82610e7c565b9150610e0a83610e7c565b9250827fffffffffffffffffffffffffffffffffffffffffffffffffffffffffffffffff03821115610e3f57610e3e610f74565b5b828201905092915050565b6000610e5582610e5c565b9050919050565b600073ffffffffffffffffffffffffffffffffffffffff82169050919050565b6000819050919050565b82818337600083830152505050565b60005b83811015610eb3578082015181840152602081019050610e98565b83811115610ec2576000848401525b50505050565b60006002820490506001821680610ee057607f821691505b60208210811415610ef457610ef3610fa3565b5b50919050565b610f0382611044565b810181811067ffffffffffffffff82111715610f2257610f21611001565b5b80604052505050565b6000610f3682610e7c565b91507fffffffffffffffffffffffffffffffffffffffffffffffffffffffffffffffff821415610f6957610f68610f74565b5b600182019050919050565b7f4e487b7100000000000000000000000000000000000000000000000000000000600052601160045260246000fd5b7f4e487b7100000000000000000000000000000000000000000000000000000000600052602260045260246000fd5b7f4e487b7100000000000000000000000000000000000000000000000000000000600052603260045260246000fd5b7f4e487b7100000000000000000000000000000000000000000000000000000000600052604160045260246000fd5b600080fd5b600080fd5b600080fd5b600080fd5b6000601f19601f8301169050919050565b7f596f7520616c726561647920766f746564206f6e207468697320766f74696e67600082015250565b7f496e76616c69642073656e646572000000000000000000000000000000000000600082015250565b7f4e6f206f70656e20766f74696e67000000000000000000000000000000000000600082015250565b7f496e76616c69642063686f696365000000000000000000000000000000000000600082015250565b61110281610e4a565b811461110d57600080fd5b50565b61111981610e7c565b811461112457600080fd5b5056fea26469706673582212204dc0e67a49baab6a069da87827c1d91059942463d4da4cf14b9a42b2151b33be64736f6c63430008070033",
					"opcodes": "PUSH1 0x80 PUSH1 0x40 MSTORE PUSH1 0x0 PUSH1 0x1 SSTORE CALLVALUE DUP1 ISZERO PUSH2 0x15 JUMPI PUSH1 0x0 DUP1 REVERT JUMPDEST POP CALLER PUSH1 0x0 DUP1 PUSH2 0x100 EXP DUP2 SLOAD DUP2 PUSH20 0xFFFFFFFFFFFFFFFFFFFFFFFFFFFFFFFFFFFFFFFF MUL NOT AND SWAP1 DUP4 PUSH20 0xFFFFFFFFFFFFFFFFFFFFFFFFFFFFFFFFFFFFFFFF AND MUL OR SWAP1 SSTORE POP PUSH2 0x115D DUP1 PUSH2 0x65 PUSH1 0x0 CODECOPY PUSH1 0x0 RETURN INVALID PUSH1 0x80 PUSH1 0x40 MSTORE CALLVALUE DUP1 ISZERO PUSH2 0x10 JUMPI PUSH1 0x0 DUP1 REVERT JUMPDEST POP PUSH1 0x4 CALLDATASIZE LT PUSH2 0x62 JUMPI PUSH1 0x0 CALLDATALOAD PUSH1 0xE0 SHR DUP1 PUSH4 0x383BADC EQ PUSH2 0x67 JUMPI DUP1 PUSH4 0x1C7BEC9D EQ PUSH2 0x83 JUMPI DUP1 PUSH4 0x55F9B1EC EQ PUSH2 0xA1 JUMPI DUP1 PUSH4 0xA598D03C EQ PUSH2 0xBD JUMPI DUP1 PUSH4 0xD23254B4 EQ PUSH2 0xF1 JUMPI DUP1 PUSH4 0xF1156CDF EQ PUSH2 0x122 JUMPI JUMPDEST PUSH1 0x0 DUP1 REVERT JUMPDEST PUSH2 0x81 PUSH1 0x4 DUP1 CALLDATASIZE SUB DUP2 ADD SWAP1 PUSH2 0x7C SWAP2 SWAP1 PUSH2 0xA24 JUMP JUMPDEST PUSH2 0x140 JUMP JUMPDEST STOP JUMPDEST PUSH2 0x8B PUSH2 0x3B3 JUMP JUMPDEST PUSH1 0x40 MLOAD PUSH2 0x98 SWAP2 SWAP1 PUSH2 0xD2D JUMP JUMPDEST PUSH1 0x40 MLOAD DUP1 SWAP2 SUB SWAP1 RETURN JUMPDEST PUSH2 0xBB PUSH1 0x4 DUP1 CALLDATASIZE SUB DUP2 ADD SWAP1 PUSH2 0xB6 SWAP2 SWAP1 PUSH2 0x999 JUMP JUMPDEST PUSH2 0x3B9 JUMP JUMPDEST STOP JUMPDEST PUSH2 0xD7 PUSH1 0x4 DUP1 CALLDATASIZE SUB DUP2 ADD SWAP1 PUSH2 0xD2 SWAP2 SWAP1 PUSH2 0xA24 JUMP JUMPDEST PUSH2 0x528 JUMP JUMPDEST PUSH1 0x40 MLOAD PUSH2 0xE8 SWAP6 SWAP5 SWAP4 SWAP3 SWAP2 SWAP1 PUSH2 0xC2A JUMP JUMPDEST PUSH1 0x40 MLOAD DUP1 SWAP2 SUB SWAP1 RETURN JUMPDEST PUSH2 0x10B PUSH1 0x4 DUP1 CALLDATASIZE SUB DUP2 ADD SWAP1 PUSH2 0x106 SWAP2 SWAP1 PUSH2 0xA51 JUMP JUMPDEST PUSH2 0x67E JUMP JUMPDEST PUSH1 0x40 MLOAD PUSH2 0x119 SWAP3 SWAP2 SWAP1 PUSH2 0xD48 JUMP JUMPDEST PUSH1 0x40 MLOAD DUP1 SWAP2 SUB SWAP1 RETURN JUMPDEST PUSH2 0x12A PUSH2 0x6AF JUMP JUMPDEST PUSH1 0x40 MLOAD PUSH2 0x137 SWAP2 SWAP1 PUSH2 0xD0B JUMP JUMPDEST PUSH1 0x40 MLOAD DUP1 SWAP2 SUB SWAP1 RETURN JUMPDEST PUSH1 0x1 DUP2 EQ DUP1 PUSH2 0x14F JUMPI POP PUSH1 0x2 DUP2 EQ JUMPDEST PUSH2 0x18E JUMPI PUSH1 0x40 MLOAD PUSH32 0x8C379A000000000000000000000000000000000000000000000000000000000 DUP2 MSTORE PUSH1 0x4 ADD PUSH2 0x185 SWAP1 PUSH2 0xCEB JUMP JUMPDEST PUSH1 0x40 MLOAD DUP1 SWAP2 SUB SWAP1 REVERT JUMPDEST TIMESTAMP PUSH2 0x197 PUSH2 0x6AF JUMP JUMPDEST PUSH1 0x80 ADD MLOAD GT PUSH2 0x1DB JUMPI PUSH1 0x40 MLOAD PUSH32 0x8C379A000000000000000000000000000000000000000000000000000000000 DUP2 MSTORE PUSH1 0x4 ADD PUSH2 0x1D2 SWAP1 PUSH2 0xCCB JUMP JUMPDEST PUSH1 0x40 MLOAD DUP1 SWAP2 SUB SWAP1 REVERT JUMPDEST PUSH1 0x0 PUSH1 0x3 PUSH1 0x0 PUSH1 0x1 SLOAD DUP2 MSTORE PUSH1 0x20 ADD SWAP1 DUP2 MSTORE PUSH1 0x20 ADD PUSH1 0x0 KECCAK256 PUSH1 0x0 CALLER PUSH20 0xFFFFFFFFFFFFFFFFFFFFFFFFFFFFFFFFFFFFFFFF AND PUSH20 0xFFFFFFFFFFFFFFFFFFFFFFFFFFFFFFFFFFFFFFFF AND DUP2 MSTORE PUSH1 0x20 ADD SWAP1 DUP2 MSTORE PUSH1 0x20 ADD PUSH1 0x0 KECCAK256 PUSH1 0x1 ADD SLOAD EQ PUSH2 0x273 JUMPI PUSH1 0x40 MLOAD PUSH32 0x8C379A000000000000000000000000000000000000000000000000000000000 DUP2 MSTORE PUSH1 0x4 ADD PUSH2 0x26A SWAP1 PUSH2 0xC8B JUMP JUMPDEST PUSH1 0x40 MLOAD DUP1 SWAP2 SUB SWAP1 REVERT JUMPDEST DUP1 PUSH1 0x3 PUSH1 0x0 PUSH1 0x1 SLOAD DUP2 MSTORE PUSH1 0x20 ADD SWAP1 DUP2 MSTORE PUSH1 0x20 ADD PUSH1 0x0 KECCAK256 PUSH1 0x0 CALLER PUSH20 0xFFFFFFFFFFFFFFFFFFFFFFFFFFFFFFFFFFFFFFFF AND PUSH20 0xFFFFFFFFFFFFFFFFFFFFFFFFFFFFFFFFFFFFFFFF AND DUP2 MSTORE PUSH1 0x20 ADD SWAP1 DUP2 MSTORE PUSH1 0x20 ADD PUSH1 0x0 KECCAK256 PUSH1 0x0 ADD DUP2 SWAP1 SSTORE POP TIMESTAMP PUSH1 0x3 PUSH1 0x0 PUSH1 0x1 SLOAD DUP2 MSTORE PUSH1 0x20 ADD SWAP1 DUP2 MSTORE PUSH1 0x20 ADD PUSH1 0x0 KECCAK256 PUSH1 0x0 CALLER PUSH20 0xFFFFFFFFFFFFFFFFFFFFFFFFFFFFFFFFFFFFFFFF AND PUSH20 0xFFFFFFFFFFFFFFFFFFFFFFFFFFFFFFFFFFFFFFFF AND DUP2 MSTORE PUSH1 0x20 ADD SWAP1 DUP2 MSTORE PUSH1 0x20 ADD PUSH1 0x0 KECCAK256 PUSH1 0x1 ADD DUP2 SWAP1 SSTORE POP PUSH1 0x1 DUP2 EQ ISZERO PUSH2 0x372 JUMPI PUSH1 0x2 PUSH1 0x1 SLOAD DUP2 SLOAD DUP2 LT PUSH2 0x346 JUMPI PUSH2 0x345 PUSH2 0xFD2 JUMP JUMPDEST JUMPDEST SWAP1 PUSH1 0x0 MSTORE PUSH1 0x20 PUSH1 0x0 KECCAK256 SWAP1 PUSH1 0x5 MUL ADD PUSH1 0x1 ADD PUSH1 0x0 DUP2 SLOAD DUP1 SWAP3 SWAP2 SWAP1 PUSH2 0x368 SWAP1 PUSH2 0xF2B JUMP JUMPDEST SWAP2 SWAP1 POP SSTORE POP PUSH2 0x3B0 JUMP JUMPDEST PUSH1 0x2 PUSH1 0x1 SLOAD DUP2 SLOAD DUP2 LT PUSH2 0x388 JUMPI PUSH2 0x387 PUSH2 0xFD2 JUMP JUMPDEST JUMPDEST SWAP1 PUSH1 0x0 MSTORE PUSH1 0x20 PUSH1 0x0 KECCAK256 SWAP1 PUSH1 0x5 MUL ADD PUSH1 0x3 ADD PUSH1 0x0 DUP2 SLOAD DUP1 SWAP3 SWAP2 SWAP1 PUSH2 0x3AA SWAP1 PUSH2 0xF2B JUMP JUMPDEST SWAP2 SWAP1 POP SSTORE POP JUMPDEST POP JUMP JUMPDEST PUSH1 0x1 SLOAD DUP2 JUMP JUMPDEST PUSH1 0x0 DUP1 SLOAD SWAP1 PUSH2 0x100 EXP SWAP1 DIV PUSH20 0xFFFFFFFFFFFFFFFFFFFFFFFFFFFFFFFFFFFFFFFF AND PUSH20 0xFFFFFFFFFFFFFFFFFFFFFFFFFFFFFFFFFFFFFFFF AND CALLER PUSH20 0xFFFFFFFFFFFFFFFFFFFFFFFFFFFFFFFFFFFFFFFF AND EQ PUSH2 0x447 JUMPI PUSH1 0x40 MLOAD PUSH32 0x8C379A000000000000000000000000000000000000000000000000000000000 DUP2 MSTORE PUSH1 0x4 ADD PUSH2 0x43E SWAP1 PUSH2 0xCAB JUMP JUMPDEST PUSH1 0x40 MLOAD DUP1 SWAP2 SUB SWAP1 REVERT JUMPDEST PUSH1 0x0 PUSH1 0x2 DUP1 SLOAD SWAP1 POP EQ PUSH2 0x46D JUMPI PUSH1 0x1 PUSH1 0x0 DUP2 SLOAD DUP1 SWAP3 SWAP2 SWAP1 PUSH2 0x467 SWAP1 PUSH2 0xF2B JUMP JUMPDEST SWAP2 SWAP1 POP SSTORE POP JUMPDEST PUSH2 0x475 PUSH2 0x82D JUMP JUMPDEST DUP4 DUP2 PUSH1 0x0 ADD DUP2 SWAP1 MSTORE POP DUP3 DUP2 PUSH1 0x40 ADD DUP2 SWAP1 MSTORE POP TIMESTAMP DUP3 PUSH2 0x493 SWAP2 SWAP1 PUSH2 0xDF4 JUMP JUMPDEST DUP2 PUSH1 0x80 ADD DUP2 DUP2 MSTORE POP POP PUSH1 0x2 DUP2 SWAP1 DUP1 PUSH1 0x1 DUP2 SLOAD ADD DUP1 DUP3 SSTORE DUP1 SWAP2 POP POP PUSH1 0x1 SWAP1 SUB SWAP1 PUSH1 0x0 MSTORE PUSH1 0x20 PUSH1 0x0 KECCAK256 SWAP1 PUSH1 0x5 MUL ADD PUSH1 0x0 SWAP1 SWAP2 SWAP1 SWAP2 SWAP1 SWAP2 POP PUSH1 0x0 DUP3 ADD MLOAD DUP2 PUSH1 0x0 ADD SWAP1 DUP1 MLOAD SWAP1 PUSH1 0x20 ADD SWAP1 PUSH2 0x4E4 SWAP3 SWAP2 SWAP1 PUSH2 0x85C JUMP JUMPDEST POP PUSH1 0x20 DUP3 ADD MLOAD DUP2 PUSH1 0x1 ADD SSTORE PUSH1 0x40 DUP3 ADD MLOAD DUP2 PUSH1 0x2 ADD SWAP1 DUP1 MLOAD SWAP1 PUSH1 0x20 ADD SWAP1 PUSH2 0x50B SWAP3 SWAP2 SWAP1 PUSH2 0x85C JUMP JUMPDEST POP PUSH1 0x60 DUP3 ADD MLOAD DUP2 PUSH1 0x3 ADD SSTORE PUSH1 0x80 DUP3 ADD MLOAD DUP2 PUSH1 0x4 ADD SSTORE POP POP POP POP POP POP JUMP JUMPDEST PUSH1 0x2 DUP2 DUP2 SLOAD DUP2 LT PUSH2 0x538 JUMPI PUSH1 0x0 DUP1 REVERT JUMPDEST SWAP1 PUSH1 0x0 MSTORE PUSH1 0x20 PUSH1 0x0 KECCAK256 SWAP1 PUSH1 0x5 MUL ADD PUSH1 0x0 SWAP2 POP SWAP1 POP DUP1 PUSH1 0x0 ADD DUP1 SLOAD PUSH2 0x55B SWAP1 PUSH2 0xEC8 JUMP JUMPDEST DUP1 PUSH1 0x1F ADD PUSH1 0x20 DUP1 SWAP2 DIV MUL PUSH1 0x20 ADD PUSH1 0x40 MLOAD SWAP1 DUP2 ADD PUSH1 0x40 MSTORE DUP1 SWAP3 SWAP2 SWAP1 DUP2 DUP2 MSTORE PUSH1 0x20 ADD DUP3 DUP1 SLOAD PUSH2 0x587 SWAP1 PUSH2 0xEC8 JUMP JUMPDEST DUP1 ISZERO PUSH2 0x5D4 JUMPI DUP1 PUSH1 0x1F LT PUSH2 0x5A9 JUMPI PUSH2 0x100 DUP1 DUP4 SLOAD DIV MUL DUP4 MSTORE SWAP2 PUSH1 0x20 ADD SWAP2 PUSH2 0x5D4 JUMP JUMPDEST DUP3 ADD SWAP2 SWAP1 PUSH1 0x0 MSTORE PUSH1 0x20 PUSH1 0x0 KECCAK256 SWAP1 JUMPDEST DUP2 SLOAD DUP2 MSTORE SWAP1 PUSH1 0x1 ADD SWAP1 PUSH1 0x20 ADD DUP1 DUP4 GT PUSH2 0x5B7 JUMPI DUP3 SWAP1 SUB PUSH1 0x1F AND DUP3 ADD SWAP2 JUMPDEST POP POP POP POP POP SWAP1 DUP1 PUSH1 0x1 ADD SLOAD SWAP1 DUP1 PUSH1 0x2 ADD DUP1 SLOAD PUSH2 0x5EF SWAP1 PUSH2 0xEC8 JUMP JUMPDEST DUP1 PUSH1 0x1F ADD PUSH1 0x20 DUP1 SWAP2 DIV MUL PUSH1 0x20 ADD PUSH1 0x40 MLOAD SWAP1 DUP2 ADD PUSH1 0x40 MSTORE DUP1 SWAP3 SWAP2 SWAP1 DUP2 DUP2 MSTORE PUSH1 0x20 ADD DUP3 DUP1 SLOAD PUSH2 0x61B SWAP1 PUSH2 0xEC8 JUMP JUMPDEST DUP1 ISZERO PUSH2 0x668 JUMPI DUP1 PUSH1 0x1F LT PUSH2 0x63D JUMPI PUSH2 0x100 DUP1 DUP4 SLOAD DIV MUL DUP4 MSTORE SWAP2 PUSH1 0x20 ADD SWAP2 PUSH2 0x668 JUMP JUMPDEST DUP3 ADD SWAP2 SWAP1 PUSH1 0x0 MSTORE PUSH1 0x20 PUSH1 0x0 KECCAK256 SWAP1 JUMPDEST DUP2 SLOAD DUP2 MSTORE SWAP1 PUSH1 0x1 ADD SWAP1 PUSH1 0x20 ADD DUP1 DUP4 GT PUSH2 0x64B JUMPI DUP3 SWAP1 SUB PUSH1 0x1F AND DUP3 ADD SWAP2 JUMPDEST POP POP POP POP POP SWAP1 DUP1 PUSH1 0x3 ADD SLOAD SWAP1 DUP1 PUSH1 0x4 ADD SLOAD SWAP1 POP DUP6 JUMP JUMPDEST PUSH1 0x3 PUSH1 0x20 MSTORE DUP2 PUSH1 0x0 MSTORE PUSH1 0x40 PUSH1 0x0 KECCAK256 PUSH1 0x20 MSTORE DUP1 PUSH1 0x0 MSTORE PUSH1 0x40 PUSH1 0x0 KECCAK256 PUSH1 0x0 SWAP2 POP SWAP2 POP POP DUP1 PUSH1 0x0 ADD SLOAD SWAP1 DUP1 PUSH1 0x1 ADD SLOAD SWAP1 POP DUP3 JUMP JUMPDEST PUSH2 0x6B7 PUSH2 0x82D JUMP JUMPDEST PUSH1 0x2 PUSH1 0x1 SLOAD DUP2 SLOAD DUP2 LT PUSH2 0x6CD JUMPI PUSH2 0x6CC PUSH2 0xFD2 JUMP JUMPDEST JUMPDEST SWAP1 PUSH1 0x0 MSTORE PUSH1 0x20 PUSH1 0x0 KECCAK256 SWAP1 PUSH1 0x5 MUL ADD PUSH1 0x40 MLOAD DUP1 PUSH1 0xA0 ADD PUSH1 0x40 MSTORE SWAP1 DUP2 PUSH1 0x0 DUP3 ADD DUP1 SLOAD PUSH2 0x6F6 SWAP1 PUSH2 0xEC8 JUMP JUMPDEST DUP1 PUSH1 0x1F ADD PUSH1 0x20 DUP1 SWAP2 DIV MUL PUSH1 0x20 ADD PUSH1 0x40 MLOAD SWAP1 DUP2 ADD PUSH1 0x40 MSTORE DUP1 SWAP3 SWAP2 SWAP1 DUP2 DUP2 MSTORE PUSH1 0x20 ADD DUP3 DUP1 SLOAD PUSH2 0x722 SWAP1 PUSH2 0xEC8 JUMP JUMPDEST DUP1 ISZERO PUSH2 0x76F JUMPI DUP1 PUSH1 0x1F LT PUSH2 0x744 JUMPI PUSH2 0x100 DUP1 DUP4 SLOAD DIV MUL DUP4 MSTORE SWAP2 PUSH1 0x20 ADD SWAP2 PUSH2 0x76F JUMP JUMPDEST DUP3 ADD SWAP2 SWAP1 PUSH1 0x0 MSTORE PUSH1 0x20 PUSH1 0x0 KECCAK256 SWAP1 JUMPDEST DUP2 SLOAD DUP2 MSTORE SWAP1 PUSH1 0x1 ADD SWAP1 PUSH1 0x20 ADD DUP1 DUP4 GT PUSH2 0x752 JUMPI DUP3 SWAP1 SUB PUSH1 0x1F AND DUP3 ADD SWAP2 JUMPDEST POP POP POP POP POP DUP2 MSTORE PUSH1 0x20 ADD PUSH1 0x1 DUP3 ADD SLOAD DUP2 MSTORE PUSH1 0x20 ADD PUSH1 0x2 DUP3 ADD DUP1 SLOAD PUSH2 0x792 SWAP1 PUSH2 0xEC8 JUMP JUMPDEST DUP1 PUSH1 0x1F ADD PUSH1 0x20 DUP1 SWAP2 DIV MUL PUSH1 0x20 ADD PUSH1 0x40 MLOAD SWAP1 DUP2 ADD PUSH1 0x40 MSTORE DUP1 SWAP3 SWAP2 SWAP1 DUP2 DUP2 MSTORE PUSH1 0x20 ADD DUP3 DUP1 SLOAD PUSH2 0x7BE SWAP1 PUSH2 0xEC8 JUMP JUMPDEST DUP1 ISZERO PUSH2 0x80B JUMPI DUP1 PUSH1 0x1F LT PUSH2 0x7E0 JUMPI PUSH2 0x100 DUP1 DUP4 SLOAD DIV MUL DUP4 MSTORE SWAP2 PUSH1 0x20 ADD SWAP2 PUSH2 0x80B JUMP JUMPDEST DUP3 ADD SWAP2 SWAP1 PUSH1 0x0 MSTORE PUSH1 0x20 PUSH1 0x0 KECCAK256 SWAP1 JUMPDEST DUP2 SLOAD DUP2 MSTORE SWAP1 PUSH1 0x1 ADD SWAP1 PUSH1 0x20 ADD DUP1 DUP4 GT PUSH2 0x7EE JUMPI DUP3 SWAP1 SUB PUSH1 0x1F AND DUP3 ADD SWAP2 JUMPDEST POP POP POP POP POP DUP2 MSTORE PUSH1 0x20 ADD PUSH1 0x3 DUP3 ADD SLOAD DUP2 MSTORE PUSH1 0x20 ADD PUSH1 0x4 DUP3 ADD SLOAD DUP2 MSTORE POP POP SWAP1 POP SWAP1 JUMP JUMPDEST PUSH1 0x40 MLOAD DUP1 PUSH1 0xA0 ADD PUSH1 0x40 MSTORE DUP1 PUSH1 0x60 DUP2 MSTORE PUSH1 0x20 ADD PUSH1 0x0 DUP2 MSTORE PUSH1 0x20 ADD PUSH1 0x60 DUP2 MSTORE PUSH1 0x20 ADD PUSH1 0x0 DUP2 MSTORE PUSH1 0x20 ADD PUSH1 0x0 DUP2 MSTORE POP SWAP1 JUMP JUMPDEST DUP3 DUP1 SLOAD PUSH2 0x868 SWAP1 PUSH2 0xEC8 JUMP JUMPDEST SWAP1 PUSH1 0x0 MSTORE PUSH1 0x20 PUSH1 0x0 KECCAK256 SWAP1 PUSH1 0x1F ADD PUSH1 0x20 SWAP1 DIV DUP2 ADD SWAP3 DUP3 PUSH2 0x88A JUMPI PUSH1 0x0 DUP6 SSTORE PUSH2 0x8D1 JUMP JUMPDEST DUP3 PUSH1 0x1F LT PUSH2 0x8A3 JUMPI DUP1 MLOAD PUSH1 0xFF NOT AND DUP4 DUP1 ADD OR DUP6 SSTORE PUSH2 0x8D1 JUMP JUMPDEST DUP3 DUP1 ADD PUSH1 0x1 ADD DUP6 SSTORE DUP3 ISZERO PUSH2 0x8D1 JUMPI SWAP2 DUP3 ADD JUMPDEST DUP3 DUP2 GT ISZERO PUSH2 0x8D0 JUMPI DUP3 MLOAD DUP3 SSTORE SWAP2 PUSH1 0x20 ADD SWAP2 SWAP1 PUSH1 0x1 ADD SWAP1 PUSH2 0x8B5 JUMP JUMPDEST JUMPDEST POP SWAP1 POP PUSH2 0x8DE SWAP2 SWAP1 PUSH2 0x8E2 JUMP JUMPDEST POP SWAP1 JUMP JUMPDEST JUMPDEST DUP1 DUP3 GT ISZERO PUSH2 0x8FB JUMPI PUSH1 0x0 DUP2 PUSH1 0x0 SWAP1 SSTORE POP PUSH1 0x1 ADD PUSH2 0x8E3 JUMP JUMPDEST POP SWAP1 JUMP JUMPDEST PUSH1 0x0 PUSH2 0x912 PUSH2 0x90D DUP5 PUSH2 0xD96 JUMP JUMPDEST PUSH2 0xD71 JUMP JUMPDEST SWAP1 POP DUP3 DUP2 MSTORE PUSH1 0x20 DUP2 ADD DUP5 DUP5 DUP5 ADD GT ISZERO PUSH2 0x92E JUMPI PUSH2 0x92D PUSH2 0x1035 JUMP JUMPDEST JUMPDEST PUSH2 0x939 DUP5 DUP3 DUP6 PUSH2 0xE86 JUMP JUMPDEST POP SWAP4 SWAP3 POP POP POP JUMP JUMPDEST PUSH1 0x0 DUP2 CALLDATALOAD SWAP1 POP PUSH2 0x950 DUP2 PUSH2 0x10F9 JUMP JUMPDEST SWAP3 SWAP2 POP POP JUMP JUMPDEST PUSH1 0x0 DUP3 PUSH1 0x1F DUP4 ADD SLT PUSH2 0x96B JUMPI PUSH2 0x96A PUSH2 0x1030 JUMP JUMPDEST JUMPDEST DUP2 CALLDATALOAD PUSH2 0x97B DUP5 DUP3 PUSH1 0x20 DUP7 ADD PUSH2 0x8FF JUMP JUMPDEST SWAP2 POP POP SWAP3 SWAP2 POP POP JUMP JUMPDEST PUSH1 0x0 DUP2 CALLDATALOAD SWAP1 POP PUSH2 0x993 DUP2 PUSH2 0x1110 JUMP JUMPDEST SWAP3 SWAP2 POP POP JUMP JUMPDEST PUSH1 0x0 DUP1 PUSH1 0x0 PUSH1 0x60 DUP5 DUP7 SUB SLT ISZERO PUSH2 0x9B2 JUMPI PUSH2 0x9B1 PUSH2 0x103F JUMP JUMPDEST JUMPDEST PUSH1 0x0 DUP5 ADD CALLDATALOAD PUSH8 0xFFFFFFFFFFFFFFFF DUP2 GT ISZERO PUSH2 0x9D0 JUMPI PUSH2 0x9CF PUSH2 0x103A JUMP JUMPDEST JUMPDEST PUSH2 0x9DC DUP7 DUP3 DUP8 ADD PUSH2 0x956 JUMP JUMPDEST SWAP4 POP POP PUSH1 0x20 DUP5 ADD CALLDATALOAD PUSH8 0xFFFFFFFFFFFFFFFF DUP2 GT ISZERO PUSH2 0x9FD JUMPI PUSH2 0x9FC PUSH2 0x103A JUMP JUMPDEST JUMPDEST PUSH2 0xA09 DUP7 DUP3 DUP8 ADD PUSH2 0x956 JUMP JUMPDEST SWAP3 POP POP PUSH1 0x40 PUSH2 0xA1A DUP7 DUP3 DUP8 ADD PUSH2 0x984 JUMP JUMPDEST SWAP2 POP POP SWAP3 POP SWAP3 POP SWAP3 JUMP JUMPDEST PUSH1 0x0 PUSH1 0x20 DUP3 DUP5 SUB SLT ISZERO PUSH2 0xA3A JUMPI PUSH2 0xA39 PUSH2 0x103F JUMP JUMPDEST JUMPDEST PUSH1 0x0 PUSH2 0xA48 DUP5 DUP3 DUP6 ADD PUSH2 0x984 JUMP JUMPDEST SWAP2 POP POP SWAP3 SWAP2 POP POP JUMP JUMPDEST PUSH1 0x0 DUP1 PUSH1 0x40 DUP4 DUP6 SUB SLT ISZERO PUSH2 0xA68 JUMPI PUSH2 0xA67 PUSH2 0x103F JUMP JUMPDEST JUMPDEST PUSH1 0x0 PUSH2 0xA76 DUP6 DUP3 DUP7 ADD PUSH2 0x984 JUMP JUMPDEST SWAP3 POP POP PUSH1 0x20 PUSH2 0xA87 DUP6 DUP3 DUP7 ADD PUSH2 0x941 JUMP JUMPDEST SWAP2 POP POP SWAP3 POP SWAP3 SWAP1 POP JUMP JUMPDEST PUSH1 0x0 PUSH2 0xA9C DUP3 PUSH2 0xDC7 JUMP JUMPDEST PUSH2 0xAA6 DUP2 DUP6 PUSH2 0xDD2 JUMP JUMPDEST SWAP4 POP PUSH2 0xAB6 DUP2 DUP6 PUSH1 0x20 DUP7 ADD PUSH2 0xE95 JUMP JUMPDEST PUSH2 0xABF DUP2 PUSH2 0x1044 JUMP JUMPDEST DUP5 ADD SWAP2 POP POP SWAP3 SWAP2 POP POP JUMP JUMPDEST PUSH1 0x0 PUSH2 0xAD5 DUP3 PUSH2 0xDC7 JUMP JUMPDEST PUSH2 0xADF DUP2 DUP6 PUSH2 0xDE3 JUMP JUMPDEST SWAP4 POP PUSH2 0xAEF DUP2 DUP6 PUSH1 0x20 DUP7 ADD PUSH2 0xE95 JUMP JUMPDEST PUSH2 0xAF8 DUP2 PUSH2 0x1044 JUMP JUMPDEST DUP5 ADD SWAP2 POP POP SWAP3 SWAP2 POP POP JUMP JUMPDEST PUSH1 0x0 PUSH2 0xB10 PUSH1 0x20 DUP4 PUSH2 0xDE3 JUMP JUMPDEST SWAP2 POP PUSH2 0xB1B DUP3 PUSH2 0x1055 JUMP JUMPDEST PUSH1 0x20 DUP3 ADD SWAP1 POP SWAP2 SWAP1 POP JUMP JUMPDEST PUSH1 0x0 PUSH2 0xB33 PUSH1 0xE DUP4 PUSH2 0xDE3 JUMP JUMPDEST SWAP2 POP PUSH2 0xB3E DUP3 PUSH2 0x107E JUMP JUMPDEST PUSH1 0x20 DUP3 ADD SWAP1 POP SWAP2 SWAP1 POP JUMP JUMPDEST PUSH1 0x0 PUSH2 0xB56 PUSH1 0xE DUP4 PUSH2 0xDE3 JUMP JUMPDEST SWAP2 POP PUSH2 0xB61 DUP3 PUSH2 0x10A7 JUMP JUMPDEST PUSH1 0x20 DUP3 ADD SWAP1 POP SWAP2 SWAP1 POP JUMP JUMPDEST PUSH1 0x0 PUSH2 0xB79 PUSH1 0xE DUP4 PUSH2 0xDE3 JUMP JUMPDEST SWAP2 POP PUSH2 0xB84 DUP3 PUSH2 0x10D0 JUMP JUMPDEST PUSH1 0x20 DUP3 ADD SWAP1 POP SWAP2 SWAP1 POP JUMP JUMPDEST PUSH1 0x0 PUSH1 0xA0 DUP4 ADD PUSH1 0x0 DUP4 ADD MLOAD DUP5 DUP3 SUB PUSH1 0x0 DUP7 ADD MSTORE PUSH2 0xBAC DUP3 DUP3 PUSH2 0xA91 JUMP JUMPDEST SWAP2 POP POP PUSH1 0x20 DUP4 ADD MLOAD PUSH2 0xBC1 PUSH1 0x20 DUP7 ADD DUP3 PUSH2 0xC0C JUMP JUMPDEST POP PUSH1 0x40 DUP4 ADD MLOAD DUP5 DUP3 SUB PUSH1 0x40 DUP7 ADD MSTORE PUSH2 0xBD9 DUP3 DUP3 PUSH2 0xA91 JUMP JUMPDEST SWAP2 POP POP PUSH1 0x60 DUP4 ADD MLOAD PUSH2 0xBEE PUSH1 0x60 DUP7 ADD DUP3 PUSH2 0xC0C JUMP JUMPDEST POP PUSH1 0x80 DUP4 ADD MLOAD PUSH2 0xC01 PUSH1 0x80 DUP7 ADD DUP3 PUSH2 0xC0C JUMP JUMPDEST POP DUP1 SWAP2 POP POP SWAP3 SWAP2 POP POP JUMP JUMPDEST PUSH2 0xC15 DUP2 PUSH2 0xE7C JUMP JUMPDEST DUP3 MSTORE POP POP JUMP JUMPDEST PUSH2 0xC24 DUP2 PUSH2 0xE7C JUMP JUMPDEST DUP3 MSTORE POP POP JUMP JUMPDEST PUSH1 0x0 PUSH1 0xA0 DUP3 ADD SWAP1 POP DUP2 DUP2 SUB PUSH1 0x0 DUP4 ADD MSTORE PUSH2 0xC44 DUP2 DUP9 PUSH2 0xACA JUMP JUMPDEST SWAP1 POP PUSH2 0xC53 PUSH1 0x20 DUP4 ADD DUP8 PUSH2 0xC1B JUMP JUMPDEST DUP2 DUP2 SUB PUSH1 0x40 DUP4 ADD MSTORE PUSH2 0xC65 DUP2 DUP7 PUSH2 0xACA JUMP JUMPDEST SWAP1 POP PUSH2 0xC74 PUSH1 0x60 DUP4 ADD DUP6 PUSH2 0xC1B JUMP JUMPDEST PUSH2 0xC81 PUSH1 0x80 DUP4 ADD DUP5 PUSH2 0xC1B JUMP JUMPDEST SWAP7 SWAP6 POP POP POP POP POP POP JUMP JUMPDEST PUSH1 0x0 PUSH1 0x20 DUP3 ADD SWAP1 POP DUP2 DUP2 SUB PUSH1 0x0 DUP4 ADD MSTORE PUSH2 0xCA4 DUP2 PUSH2 0xB03 JUMP JUMPDEST SWAP1 POP SWAP2 SWAP1 POP JUMP JUMPDEST PUSH1 0x0 PUSH1 0x20 DUP3 ADD SWAP1 POP DUP2 DUP2 SUB PUSH1 0x0 DUP4 ADD MSTORE PUSH2 0xCC4 DUP2 PUSH2 0xB26 JUMP JUMPDEST SWAP1 POP SWAP2 SWAP1 POP JUMP JUMPDEST PUSH1 0x0 PUSH1 0x20 DUP3 ADD SWAP1 POP DUP2 DUP2 SUB PUSH1 0x0 DUP4 ADD MSTORE PUSH2 0xCE4 DUP2 PUSH2 0xB49 JUMP JUMPDEST SWAP1 POP SWAP2 SWAP1 POP JUMP JUMPDEST PUSH1 0x0 PUSH1 0x20 DUP3 ADD SWAP1 POP DUP2 DUP2 SUB PUSH1 0x0 DUP4 ADD MSTORE PUSH2 0xD04 DUP2 PUSH2 0xB6C JUMP JUMPDEST SWAP1 POP SWAP2 SWAP1 POP JUMP JUMPDEST PUSH1 0x0 PUSH1 0x20 DUP3 ADD SWAP1 POP DUP2 DUP2 SUB PUSH1 0x0 DUP4 ADD MSTORE PUSH2 0xD25 DUP2 DUP5 PUSH2 0xB8F JUMP JUMPDEST SWAP1 POP SWAP3 SWAP2 POP POP JUMP JUMPDEST PUSH1 0x0 PUSH1 0x20 DUP3 ADD SWAP1 POP PUSH2 0xD42 PUSH1 0x0 DUP4 ADD DUP5 PUSH2 0xC1B JUMP JUMPDEST SWAP3 SWAP2 POP POP JUMP JUMPDEST PUSH1 0x0 PUSH1 0x40 DUP3 ADD SWAP1 POP PUSH2 0xD5D PUSH1 0x0 DUP4 ADD DUP6 PUSH2 0xC1B JUMP JUMPDEST PUSH2 0xD6A PUSH1 0x20 DUP4 ADD DUP5 PUSH2 0xC1B JUMP JUMPDEST SWAP4 SWAP3 POP POP POP JUMP JUMPDEST PUSH1 0x0 PUSH2 0xD7B PUSH2 0xD8C JUMP JUMPDEST SWAP1 POP PUSH2 0xD87 DUP3 DUP3 PUSH2 0xEFA JUMP JUMPDEST SWAP2 SWAP1 POP JUMP JUMPDEST PUSH1 0x0 PUSH1 0x40 MLOAD SWAP1 POP SWAP1 JUMP JUMPDEST PUSH1 0x0 PUSH8 0xFFFFFFFFFFFFFFFF DUP3 GT ISZERO PUSH2 0xDB1 JUMPI PUSH2 0xDB0 PUSH2 0x1001 JUMP JUMPDEST JUMPDEST PUSH2 0xDBA DUP3 PUSH2 0x1044 JUMP JUMPDEST SWAP1 POP PUSH1 0x20 DUP2 ADD SWAP1 POP SWAP2 SWAP1 POP JUMP JUMPDEST PUSH1 0x0 DUP2 MLOAD SWAP1 POP SWAP2 SWAP1 POP JUMP JUMPDEST PUSH1 0x0 DUP3 DUP3 MSTORE PUSH1 0x20 DUP3 ADD SWAP1 POP SWAP3 SWAP2 POP POP JUMP JUMPDEST PUSH1 0x0 DUP3 DUP3 MSTORE PUSH1 0x20 DUP3 ADD SWAP1 POP SWAP3 SWAP2 POP POP JUMP JUMPDEST PUSH1 0x0 PUSH2 0xDFF DUP3 PUSH2 0xE7C JUMP JUMPDEST SWAP2 POP PUSH2 0xE0A DUP4 PUSH2 0xE7C JUMP JUMPDEST SWAP3 POP DUP3 PUSH32 0xFFFFFFFFFFFFFFFFFFFFFFFFFFFFFFFFFFFFFFFFFFFFFFFFFFFFFFFFFFFFFFFF SUB DUP3 GT ISZERO PUSH2 0xE3F JUMPI PUSH2 0xE3E PUSH2 0xF74 JUMP JUMPDEST JUMPDEST DUP3 DUP3 ADD SWAP1 POP SWAP3 SWAP2 POP POP JUMP JUMPDEST PUSH1 0x0 PUSH2 0xE55 DUP3 PUSH2 0xE5C JUMP JUMPDEST SWAP1 POP SWAP2 SWAP1 POP JUMP JUMPDEST PUSH1 0x0 PUSH20 0xFFFFFFFFFFFFFFFFFFFFFFFFFFFFFFFFFFFFFFFF DUP3 AND SWAP1 POP SWAP2 SWAP1 POP JUMP JUMPDEST PUSH1 0x0 DUP2 SWAP1 POP SWAP2 SWAP1 POP JUMP JUMPDEST DUP3 DUP2 DUP4 CALLDATACOPY PUSH1 0x0 DUP4 DUP4 ADD MSTORE POP POP POP JUMP JUMPDEST PUSH1 0x0 JUMPDEST DUP4 DUP2 LT ISZERO PUSH2 0xEB3 JUMPI DUP1 DUP3 ADD MLOAD DUP2 DUP5 ADD MSTORE PUSH1 0x20 DUP2 ADD SWAP1 POP PUSH2 0xE98 JUMP JUMPDEST DUP4 DUP2 GT ISZERO PUSH2 0xEC2 JUMPI PUSH1 0x0 DUP5 DUP5 ADD MSTORE JUMPDEST POP POP POP POP JUMP JUMPDEST PUSH1 0x0 PUSH1 0x2 DUP3 DIV SWAP1 POP PUSH1 0x1 DUP3 AND DUP1 PUSH2 0xEE0 JUMPI PUSH1 0x7F DUP3 AND SWAP2 POP JUMPDEST PUSH1 0x20 DUP3 LT DUP2 EQ ISZERO PUSH2 0xEF4 JUMPI PUSH2 0xEF3 PUSH2 0xFA3 JUMP JUMPDEST JUMPDEST POP SWAP2 SWAP1 POP JUMP JUMPDEST PUSH2 0xF03 DUP3 PUSH2 0x1044 JUMP JUMPDEST DUP2 ADD DUP2 DUP2 LT PUSH8 0xFFFFFFFFFFFFFFFF DUP3 GT OR ISZERO PUSH2 0xF22 JUMPI PUSH2 0xF21 PUSH2 0x1001 JUMP JUMPDEST JUMPDEST DUP1 PUSH1 0x40 MSTORE POP POP POP JUMP JUMPDEST PUSH1 0x0 PUSH2 0xF36 DUP3 PUSH2 0xE7C JUMP JUMPDEST SWAP2 POP PUSH32 0xFFFFFFFFFFFFFFFFFFFFFFFFFFFFFFFFFFFFFFFFFFFFFFFFFFFFFFFFFFFFFFFF DUP3 EQ ISZERO PUSH2 0xF69 JUMPI PUSH2 0xF68 PUSH2 0xF74 JUMP JUMPDEST JUMPDEST PUSH1 0x1 DUP3 ADD SWAP1 POP SWAP2 SWAP1 POP JUMP JUMPDEST PUSH32 0x4E487B7100000000000000000000000000000000000000000000000000000000 PUSH1 0x0 MSTORE PUSH1 0x11 PUSH1 0x4 MSTORE PUSH1 0x24 PUSH1 0x0 REVERT JUMPDEST PUSH32 0x4E487B7100000000000000000000000000000000000000000000000000000000 PUSH1 0x0 MSTORE PUSH1 0x22 PUSH1 0x4 MSTORE PUSH1 0x24 PUSH1 0x0 REVERT JUMPDEST PUSH32 0x4E487B7100000000000000000000000000000000000000000000000000000000 PUSH1 0x0 MSTORE PUSH1 0x32 PUSH1 0x4 MSTORE PUSH1 0x24 PUSH1 0x0 REVERT JUMPDEST PUSH32 0x4E487B7100000000000000000000000000000000000000000000000000000000 PUSH1 0x0 MSTORE PUSH1 0x41 PUSH1 0x4 MSTORE PUSH1 0x24 PUSH1 0x0 REVERT JUMPDEST PUSH1 0x0 DUP1 REVERT JUMPDEST PUSH1 0x0 DUP1 REVERT JUMPDEST PUSH1 0x0 DUP1 REVERT JUMPDEST PUSH1 0x0 DUP1 REVERT JUMPDEST PUSH1 0x0 PUSH1 0x1F NOT PUSH1 0x1F DUP4 ADD AND SWAP1 POP SWAP2 SWAP1 POP JUMP JUMPDEST PUSH32 0x596F7520616C726561647920766F746564206F6E207468697320766F74696E67 PUSH1 0x0 DUP3 ADD MSTORE POP JUMP JUMPDEST PUSH32 0x496E76616C69642073656E646572000000000000000000000000000000000000 PUSH1 0x0 DUP3 ADD MSTORE POP JUMP JUMPDEST PUSH32 0x4E6F206F70656E20766F74696E67000000000000000000000000000000000000 PUSH1 0x0 DUP3 ADD MSTORE POP JUMP JUMPDEST PUSH32 0x496E76616C69642063686F696365000000000000000000000000000000000000 PUSH1 0x0 DUP3 ADD MSTORE POP JUMP JUMPDEST PUSH2 0x1102 DUP2 PUSH2 0xE4A JUMP JUMPDEST DUP2 EQ PUSH2 0x110D JUMPI PUSH1 0x0 DUP1 REVERT JUMPDEST POP JUMP JUMPDEST PUSH2 0x1119 DUP2 PUSH2 0xE7C JUMP JUMPDEST DUP2 EQ PUSH2 0x1124 JUMPI PUSH1 0x0 DUP1 REVERT JUMPDEST POP JUMP INVALID LOG2 PUSH5 0x6970667358 0x22 SLT KECCAK256 0x4D 0xC0 0xE6 PUSH27 0x49BAAB6A069DA87827C1D91059942463D4DA4CF14B9A42B2151B33 0xBE PUSH5 0x736F6C6343 STOP ADDMOD SMOD STOP CALLER "
				},
				"gasEstimates": {
					"creation": {
						"codeDepositCost": "889000",
						"executionCost": "30194",
						"totalCost": "919194"
					},
					"external": {
						"addVote(uint256)": "infinite",
						"addVoting(string,string,uint256)": "infinite",
						"currentVoting()": "2429",
						"getCurrentVoting()": "infinite",
						"votes(uint256,address)": "infinite",
						"votings(uint256)": "infinite"
					}
				},
				"methodIdentifiers": {
					"addVote(uint256)": "0383badc",
					"addVoting(string,string,uint256)": "55f9b1ec",
					"currentVoting()": "1c7bec9d",
					"getCurrentVoting()": "f1156cdf",
					"votes(uint256,address)": "d23254b4",
					"votings(uint256)": "a598d03c"
				}
			},
			"storageLayout": {
				"storage": [
					{
						"astId": 19,
						"contract": "contracts/Webbb3.sol:Webbb3",
						"label": "owner",
						"offset": 0,
						"slot": "0",
						"type": "t_address"
					},
					{
						"astId": 22,
						"contract": "contracts/Webbb3.sol:Webbb3",
						"label": "currentVoting",
						"offset": 0,
						"slot": "1",
						"type": "t_uint256"
					},
					{
						"astId": 26,
						"contract": "contracts/Webbb3.sol:Webbb3",
						"label": "votings",
						"offset": 0,
						"slot": "2",
						"type": "t_array(t_struct(Voting)12_storage)dyn_storage"
					},
					{
						"astId": 33,
						"contract": "contracts/Webbb3.sol:Webbb3",
						"label": "votes",
						"offset": 0,
						"slot": "3",
						"type": "t_mapping(t_uint256,t_mapping(t_address,t_struct(Vote)17_storage))"
					}
				],
				"types": {
					"t_address": {
						"encoding": "inplace",
						"label": "address",
						"numberOfBytes": "20"
					},
					"t_array(t_struct(Voting)12_storage)dyn_storage": {
						"base": "t_struct(Voting)12_storage",
						"encoding": "dynamic_array",
						"label": "struct Voting[]",
						"numberOfBytes": "32"
					},
					"t_mapping(t_address,t_struct(Vote)17_storage)": {
						"encoding": "mapping",
						"key": "t_address",
						"label": "mapping(address => struct Vote)",
						"numberOfBytes": "32",
						"value": "t_struct(Vote)17_storage"
					},
					"t_mapping(t_uint256,t_mapping(t_address,t_struct(Vote)17_storage))": {
						"encoding": "mapping",
						"key": "t_uint256",
						"label": "mapping(uint256 => mapping(address => struct Vote))",
						"numberOfBytes": "32",
						"value": "t_mapping(t_address,t_struct(Vote)17_storage)"
					},
					"t_string_storage": {
						"encoding": "bytes",
						"label": "string",
						"numberOfBytes": "32"
					},
					"t_struct(Vote)17_storage": {
						"encoding": "inplace",
						"label": "struct Vote",
						"members": [
							{
								"astId": 14,
								"contract": "contracts/Webbb3.sol:Webbb3",
								"label": "choice",
								"offset": 0,
								"slot": "0",
								"type": "t_uint256"
							},
							{
								"astId": 16,
								"contract": "contracts/Webbb3.sol:Webbb3",
								"label": "date",
								"offset": 0,
								"slot": "1",
								"type": "t_uint256"
							}
						],
						"numberOfBytes": "64"
					},
					"t_struct(Voting)12_storage": {
						"encoding": "inplace",
						"label": "struct Voting",
						"members": [
							{
								"astId": 3,
								"contract": "contracts/Webbb3.sol:Webbb3",
								"label": "option1",
								"offset": 0,
								"slot": "0",
								"type": "t_string_storage"
							},
							{
								"astId": 5,
								"contract": "contracts/Webbb3.sol:Webbb3",
								"label": "votes1",
								"offset": 0,
								"slot": "1",
								"type": "t_uint256"
							},
							{
								"astId": 7,
								"contract": "contracts/Webbb3.sol:Webbb3",
								"label": "option2",
								"offset": 0,
								"slot": "2",
								"type": "t_string_storage"
							},
							{
								"astId": 9,
								"contract": "contracts/Webbb3.sol:Webbb3",
								"label": "votes2",
								"offset": 0,
								"slot": "3",
								"type": "t_uint256"
							},
							{
								"astId": 11,
								"contract": "contracts/Webbb3.sol:Webbb3",
								"label": "maxDate",
								"offset": 0,
								"slot": "4",
								"type": "t_uint256"
							}
						],
						"numberOfBytes": "160"
					},
					"t_uint256": {
						"encoding": "inplace",
						"label": "uint256",
						"numberOfBytes": "32"
					}
				}
			},
			"userdoc": {
				"kind": "user",
				"methods": {},
				"version": 1
			}
		}
	}
}